{
  "contractName": "Nexty",
  "abi": [
    {
      "constant": true,
      "inputs": [
        {
          "name": "",
          "type": "uint256"
        }
      ],
      "name": "signers",
      "outputs": [
        {
          "name": "",
          "type": "address"
        }
      ],
      "payable": false,
      "stateMutability": "view",
      "type": "function"
    },
    {
      "constant": true,
      "inputs": [
        {
          "name": "",
          "type": "uint256"
        }
      ],
      "name": "holders",
      "outputs": [
        {
          "name": "",
          "type": "address"
        }
      ],
      "payable": false,
      "stateMutability": "view",
      "type": "function"
    },
    {
      "constant": false,
      "inputs": [
        {
          "name": "addrs",
          "type": "address[]"
        }
      ],
      "name": "removeAddressesFromBlacklist",
      "outputs": [
        {
          "name": "success",
          "type": "bool"
        }
      ],
      "payable": false,
      "stateMutability": "nonpayable",
      "type": "function"
    },
    {
      "constant": true,
      "inputs": [],
      "name": "getBlacklist",
      "outputs": [
        {
          "name": "",
          "type": "address[]"
        }
      ],
      "payable": false,
      "stateMutability": "view",
      "type": "function"
    },
    {
      "constant": false,
      "inputs": [
        {
          "name": "addr",
          "type": "address"
        }
      ],
      "name": "removeAddressFromBlacklist",
      "outputs": [
        {
          "name": "success",
          "type": "bool"
        }
      ],
      "payable": false,
      "stateMutability": "nonpayable",
      "type": "function"
    },
    {
      "constant": true,
      "inputs": [
        {
          "name": "",
          "type": "address"
        }
      ],
      "name": "sealer",
      "outputs": [
        {
          "name": "",
          "type": "bool"
        }
      ],
      "payable": false,
      "stateMutability": "view",
      "type": "function"
    },
    {
      "constant": true,
      "inputs": [],
      "name": "owner",
      "outputs": [
        {
          "name": "",
          "type": "address"
        }
      ],
      "payable": false,
      "stateMutability": "view",
      "type": "function"
    },
    {
      "constant": true,
      "inputs": [
        {
          "name": "contractName",
          "type": "string"
        },
        {
          "name": "migrationId",
          "type": "string"
        }
      ],
      "name": "isMigrated",
      "outputs": [
        {
          "name": "",
          "type": "bool"
        }
      ],
      "payable": false,
      "stateMutability": "view",
      "type": "function"
    },
    {
      "constant": false,
      "inputs": [
        {
          "name": "addrs",
          "type": "address[]"
        }
      ],
      "name": "addAddressesToBlacklist",
      "outputs": [
        {
          "name": "success",
          "type": "bool"
        }
      ],
      "payable": false,
      "stateMutability": "nonpayable",
      "type": "function"
    },
    {
      "constant": false,
      "inputs": [
        {
          "name": "addr",
          "type": "address"
        }
      ],
      "name": "addAddressToBlacklist",
      "outputs": [
        {
          "name": "success",
          "type": "bool"
        }
      ],
      "payable": false,
      "stateMutability": "nonpayable",
      "type": "function"
    },
    {
      "constant": false,
      "inputs": [
        {
          "name": "newOwner",
          "type": "address"
        }
      ],
      "name": "transferOwnership",
      "outputs": [],
      "payable": false,
      "stateMutability": "nonpayable",
      "type": "function"
    },
    {
      "constant": true,
      "inputs": [
        {
          "name": "",
          "type": "address"
        }
      ],
      "name": "blacklist",
      "outputs": [
        {
          "name": "",
          "type": "bool"
        }
      ],
      "payable": false,
      "stateMutability": "view",
      "type": "function"
    },
    {
      "constant": true,
      "inputs": [
        {
          "name": "",
          "type": "address"
        }
      ],
      "name": "coinbase",
      "outputs": [
        {
          "name": "",
          "type": "address"
        }
      ],
      "payable": false,
      "stateMutability": "view",
      "type": "function"
    },
    {
      "anonymous": false,
      "inputs": [
        {
          "indexed": false,
          "name": "_holder",
          "type": "address"
        },
        {
          "indexed": false,
          "name": "_coinbase",
          "type": "address"
        }
      ],
      "name": "SetCoinbase",
      "type": "event"
    },
    {
      "anonymous": false,
      "inputs": [
        {
          "indexed": false,
          "name": "_holder",
          "type": "address"
        },
        {
          "indexed": false,
          "name": "_coinbase",
          "type": "address"
        }
      ],
      "name": "UnSetCoinbase",
      "type": "event"
    },
    {
      "anonymous": false,
      "inputs": [
        {
          "indexed": false,
          "name": "addr",
          "type": "address"
        }
      ],
      "name": "BlacklistedAddressAdded",
      "type": "event"
    },
    {
      "anonymous": false,
      "inputs": [
        {
          "indexed": false,
          "name": "addr",
          "type": "address"
        }
      ],
      "name": "BlacklistedAddressRemoved",
      "type": "event"
    },
    {
      "anonymous": false,
      "inputs": [
        {
          "indexed": true,
          "name": "previousOwner",
          "type": "address"
        },
        {
          "indexed": true,
          "name": "newOwner",
          "type": "address"
        }
      ],
      "name": "OwnershipTransferred",
      "type": "event"
    },
    {
      "anonymous": false,
      "inputs": [
        {
          "indexed": false,
          "name": "contractName",
          "type": "string"
        },
        {
          "indexed": false,
          "name": "migrationId",
          "type": "string"
        }
      ],
      "name": "Migrated",
      "type": "event"
    },
    {
      "constant": false,
      "inputs": [],
      "name": "initialize",
      "outputs": [],
      "payable": false,
      "stateMutability": "nonpayable",
      "type": "function"
    },
    {
      "constant": false,
      "inputs": [
        {
          "name": "_sender",
          "type": "address"
        }
      ],
      "name": "initialize",
      "outputs": [],
      "payable": false,
      "stateMutability": "nonpayable",
      "type": "function"
    },
    {
      "constant": true,
      "inputs": [],
      "name": "getHolders",
      "outputs": [
        {
          "name": "",
          "type": "address[]"
        }
      ],
      "payable": false,
      "stateMutability": "view",
      "type": "function"
    },
    {
      "constant": true,
      "inputs": [],
      "name": "getSigners",
      "outputs": [
        {
          "name": "",
          "type": "address[]"
        }
      ],
      "payable": false,
      "stateMutability": "view",
      "type": "function"
    },
    {
      "constant": false,
      "inputs": [
        {
          "name": "_coinbase",
          "type": "address"
        }
      ],
      "name": "setCoinbase",
      "outputs": [
        {
          "name": "",
          "type": "bool"
        }
      ],
      "payable": false,
      "stateMutability": "nonpayable",
      "type": "function"
    },
    {
      "constant": false,
      "inputs": [
        {
          "name": "_coinbase",
          "type": "address"
        }
      ],
      "name": "unSetCoinbase",
      "outputs": [
        {
          "name": "",
          "type": "bool"
        }
      ],
      "payable": false,
      "stateMutability": "nonpayable",
      "type": "function"
    }
  ],
  "bytecode": "0x608060405234801561001057600080fd5b506122e2806100206000396000f300608060405260043610610107576000357c0100000000000000000000000000000000000000000000000000000000900463ffffffff1680631da420cd1461010c5780632079fb9a146101675780632a11ced0146101d45780633225879414610241578063338d6c30146102bf57806335e82f3a1461032b57806341b56a051461038657806350110baf146103e15780635fe8e7cc1461043c5780638129fc1c146104a85780638da5cb5b146104bf57806394cf795e14610516578063c0bac1a814610582578063c4d66de814610649578063ca73419e1461068c578063f2c816ae1461070a578063f2fde38b14610765578063f9f92be4146107a8578063ff483c5414610803575b600080fd5b34801561011857600080fd5b5061014d600480360381019080803573ffffffffffffffffffffffffffffffffffffffff169060200190929190505050610886565b604051808215151515815260200191505060405180910390f35b34801561017357600080fd5b5061019260048036038101908080359060200190929190505050610c22565b604051808273ffffffffffffffffffffffffffffffffffffffff1673ffffffffffffffffffffffffffffffffffffffff16815260200191505060405180910390f35b3480156101e057600080fd5b506101ff60048036038101908080359060200190929190505050610c60565b604051808273ffffffffffffffffffffffffffffffffffffffff1673ffffffffffffffffffffffffffffffffffffffff16815260200191505060405180910390f35b34801561024d57600080fd5b506102a560048036038101908080359060200190820180359060200190808060200260200160405190810160405280939291908181526020018383602002808284378201915050505050509192919290505050610c9e565b604051808215151515815260200191505060405180910390f35b3480156102cb57600080fd5b506102d4610d48565b6040518080602001828103825283818151815260200191508051906020019060200280838360005b838110156103175780820151818401526020810190506102fc565b505050509050019250505060405180910390f35b34801561033757600080fd5b5061036c600480360381019080803573ffffffffffffffffffffffffffffffffffffffff169060200190929190505050610dd6565b604051808215151515815260200191505060405180910390f35b34801561039257600080fd5b506103c7600480360381019080803573ffffffffffffffffffffffffffffffffffffffff16906020019092919050505061108d565b604051808215151515815260200191505060405180910390f35b3480156103ed57600080fd5b50610422600480360381019080803573ffffffffffffffffffffffffffffffffffffffff1690602001909291905050506110ad565b604051808215151515815260200191505060405180910390f35b34801561044857600080fd5b50610451611301565b6040518080602001828103825283818151815260200191508051906020019060200280838360005b83811015610494578082015181840152602081019050610479565b505050509050019250505060405180910390f35b3480156104b457600080fd5b506104bd61138f565b005b3480156104cb57600080fd5b506104d461160b565b604051808273ffffffffffffffffffffffffffffffffffffffff1673ffffffffffffffffffffffffffffffffffffffff16815260200191505060405180910390f35b34801561052257600080fd5b5061052b611631565b6040518080602001828103825283818151815260200191508051906020019060200280838360005b8381101561056e578082015181840152602081019050610553565b505050509050019250505060405180910390f35b34801561058e57600080fd5b5061062f600480360381019080803590602001908201803590602001908080601f0160208091040260200160405190810160405280939291908181526020018383808284378201915050505050509192919290803590602001908201803590602001908080601f01602080910402602001604051908101604052809392919081815260200183838082843782019150505050505091929192905050506116bf565b604051808215151515815260200191505060405180910390f35b34801561065557600080fd5b5061068a600480360381019080803573ffffffffffffffffffffffffffffffffffffffff1690602001909291905050506117aa565b005b34801561069857600080fd5b506106f060048036038101908080359060200190820180359060200190808060200260200160405190810160405280939291908181526020018383602002808284378201915050505050509192919290505050611a30565b604051808215151515815260200191505060405180910390f35b34801561071657600080fd5b5061074b600480360381019080803573ffffffffffffffffffffffffffffffffffffffff169060200190929190505050611ada565b604051808215151515815260200191505060405180910390f35b34801561077157600080fd5b506107a6600480360381019080803573ffffffffffffffffffffffffffffffffffffffff169060200190929190505050611cb6565b005b3480156107b457600080fd5b506107e9600480360381019080803573ffffffffffffffffffffffffffffffffffffffff169060200190929190505050611e0e565b604051808215151515815260200191505060405180910390f35b34801561080f57600080fd5b50610844600480360381019080803573ffffffffffffffffffffffffffffffffffffffff169060200190929190505050611e2e565b604051808273ffffffffffffffffffffffffffffffffffffffff1673ffffffffffffffffffffffffffffffffffffffff16815260200191505060405180910390f35b600081600073ffffffffffffffffffffffffffffffffffffffff168173ffffffffffffffffffffffffffffffffffffffff16141515156108c557600080fd5b3073ffffffffffffffffffffffffffffffffffffffff168173ffffffffffffffffffffffffffffffffffffffff161415151561090057600080fd5b600160009054906101000a900473ffffffffffffffffffffffffffffffffffffffff1673ffffffffffffffffffffffffffffffffffffffff168173ffffffffffffffffffffffffffffffffffffffff161415151561095d57600080fd5b3373ffffffffffffffffffffffffffffffffffffffff168173ffffffffffffffffffffffffffffffffffffffff161415151561099857600080fd5b6000600460003373ffffffffffffffffffffffffffffffffffffffff1673ffffffffffffffffffffffffffffffffffffffff168152602001908152602001600020541115156109e657600080fd5b60001515600660003373ffffffffffffffffffffffffffffffffffffffff1673ffffffffffffffffffffffffffffffffffffffff16815260200190815260200160002060009054906101000a900460ff161515141515610a4557600080fd5b33600560008573ffffffffffffffffffffffffffffffffffffffff1673ffffffffffffffffffffffffffffffffffffffff16815260200190815260200160002060006101000a81548173ffffffffffffffffffffffffffffffffffffffff021916908373ffffffffffffffffffffffffffffffffffffffff16021790555060078390806001815401808255809150509060018203906000526020600020016000909192909190916101000a81548173ffffffffffffffffffffffffffffffffffffffff021916908373ffffffffffffffffffffffffffffffffffffffff160217905550506001600660003373ffffffffffffffffffffffffffffffffffffffff1673ffffffffffffffffffffffffffffffffffffffff16815260200190815260200160002060006101000a81548160ff0219169083151502179055507f6319e9347086346f1e4dd77e20322c2f67b3ae6af64b65326b9815cafcd51b443384604051808373ffffffffffffffffffffffffffffffffffffffff1673ffffffffffffffffffffffffffffffffffffffff1681526020018273ffffffffffffffffffffffffffffffffffffffff1673ffffffffffffffffffffffffffffffffffffffff1681526020019250505060405180910390a16001915050919050565b600781815481101515610c3157fe5b906000526020600020016000915054906101000a900473ffffffffffffffffffffffffffffffffffffffff1681565b600881815481101515610c6f57fe5b906000526020600020016000915054906101000a900473ffffffffffffffffffffffffffffffffffffffff1681565b600080600160009054906101000a900473ffffffffffffffffffffffffffffffffffffffff1673ffffffffffffffffffffffffffffffffffffffff163373ffffffffffffffffffffffffffffffffffffffff16141515610cfd57600080fd5b600090505b8251811015610d4257610d2b8382815181101515610d1c57fe5b90602001906020020151610dd6565b15610d3557600191505b8080600101915050610d02565b50919050565b60606003805480602002602001604051908101604052809291908181526020018280548015610dcc57602002820191906000526020600020905b8160009054906101000a900473ffffffffffffffffffffffffffffffffffffffff1673ffffffffffffffffffffffffffffffffffffffff1681526020019060010190808311610d82575b5050505050905090565b600080600160009054906101000a900473ffffffffffffffffffffffffffffffffffffffff1673ffffffffffffffffffffffffffffffffffffffff163373ffffffffffffffffffffffffffffffffffffffff16141515610e3557600080fd5b600260008473ffffffffffffffffffffffffffffffffffffffff1673ffffffffffffffffffffffffffffffffffffffff16815260200190815260200160002060009054906101000a900460ff1615611087576000600260008573ffffffffffffffffffffffffffffffffffffffff1673ffffffffffffffffffffffffffffffffffffffff16815260200190815260200160002060006101000a81548160ff021916908315150217905550600090505b60038054905081101561101f57600381815481101515610f0057fe5b9060005260206000200160009054906101000a900473ffffffffffffffffffffffffffffffffffffffff1673ffffffffffffffffffffffffffffffffffffffff168373ffffffffffffffffffffffffffffffffffffffff161415611012576003600160038054905003815481101515610f7557fe5b9060005260206000200160009054906101000a900473ffffffffffffffffffffffffffffffffffffffff16600382815481101515610faf57fe5b9060005260206000200160006101000a81548173ffffffffffffffffffffffffffffffffffffffff021916908373ffffffffffffffffffffffffffffffffffffffff160217905550600380548091906001900361100c9190612265565b5061101f565b8080600101915050610ee4565b7fb9b02d6ef3069c468ac99865bad0d84ec0cf34671cb26053e5e47d415ae1756483604051808273ffffffffffffffffffffffffffffffffffffffff1673ffffffffffffffffffffffffffffffffffffffff16815260200191505060405180910390a1600191505b50919050565b60066020528060005260406000206000915054906101000a900460ff1681565b60003373ffffffffffffffffffffffffffffffffffffffff16600560008473ffffffffffffffffffffffffffffffffffffffff1673ffffffffffffffffffffffffffffffffffffffff16815260200190815260200160002060009054906101000a900473ffffffffffffffffffffffffffffffffffffffff1673ffffffffffffffffffffffffffffffffffffffff1614151561114857600080fd5b60011515600660003373ffffffffffffffffffffffffffffffffffffffff1673ffffffffffffffffffffffffffffffffffffffff16815260200190815260200160002060009054906101000a900460ff1615151415156111a757600080fd5b600560008373ffffffffffffffffffffffffffffffffffffffff1673ffffffffffffffffffffffffffffffffffffffff16815260200190815260200160002060006101000a81549073ffffffffffffffffffffffffffffffffffffffff021916905561121282611e61565b600660003373ffffffffffffffffffffffffffffffffffffffff1673ffffffffffffffffffffffffffffffffffffffff16815260200190815260200160002060006101000a81549060ff02191690557fc3232b86b60457a7d0556d57a7273bfca2f5faf23e20549e4ed30fc0c7c71ac23383604051808373ffffffffffffffffffffffffffffffffffffffff1673ffffffffffffffffffffffffffffffffffffffff1681526020018273ffffffffffffffffffffffffffffffffffffffff1673ffffffffffffffffffffffffffffffffffffffff1681526020019250505060405180910390a160019050919050565b6060600880548060200260200160405190810160405280929190818152602001828054801561138557602002820191906000526020600020905b8160009054906101000a900473ffffffffffffffffffffffffffffffffffffffff1673ffffffffffffffffffffffffffffffffffffffff168152602001906001019080831161133b575b5050505050905090565b6040805190810160405280600581526020017f4e657874790000000000000000000000000000000000000000000000000000008152506040805190810160405280600381526020017f302e31000000000000000000000000000000000000000000000000000000000081525061140582826116bf565b15151561141157600080fd5b7fdd117a11c22118c9dee4b5a67ce578bc44529dce21ee0ccc439588fbb9fb4ea38282604051808060200180602001838103835285818151815260200191508051906020019080838360005b8381101561147857808201518184015260208101905061145d565b50505050905090810190601f1680156114a55780820380516001836020036101000a031916815260200191505b50838103825284818151815260200191508051906020019080838360005b838110156114de5780820151818401526020810190506114c3565b50505050905090810190601f16801561150b5780820380516001836020036101000a031916815260200191505b5094505050505060405180910390a160016000836040518082805190602001908083835b602083101515611554578051825260208201915060208101905060208303925061152f565b6001836020036101000a0380198251168184511680821785525050505050509050019150509081526020016040518091039020826040518082805190602001908083835b6020831015156115bd5780518252602082019150602081019050602083039250611598565b6001836020036101000a038019825116818451168082178552505050505050905001915050908152602001604051809103902060006101000a81548160ff0219169083151502179055505050565b600160009054906101000a900473ffffffffffffffffffffffffffffffffffffffff1681565b606060078054806020026020016040519081016040528092919081815260200182805480156116b557602002820191906000526020600020905b8160009054906101000a900473ffffffffffffffffffffffffffffffffffffffff1673ffffffffffffffffffffffffffffffffffffffff168152602001906001019080831161166b575b5050505050905090565b600080836040518082805190602001908083835b6020831015156116f857805182526020820191506020810190506020830392506116d3565b6001836020036101000a0380198251168184511680821785525050505050509050019150509081526020016040518091039020826040518082805190602001908083835b602083101515611761578051825260208201915060208101905060208303925061173c565b6001836020036101000a038019825116818451168082178552505050505050905001915050908152602001604051809103902060009054906101000a900460ff16905092915050565b6040805190810160405280600981526020017f426c61636b6c69737400000000000000000000000000000000000000000000008152506040805190810160405280600381526020017f302e31000000000000000000000000000000000000000000000000000000000081525061182082826116bf565b15151561182c57600080fd5b61183583611fa7565b7fdd117a11c22118c9dee4b5a67ce578bc44529dce21ee0ccc439588fbb9fb4ea38282604051808060200180602001838103835285818151815260200191508051906020019080838360005b8381101561189c578082015181840152602081019050611881565b50505050905090810190601f1680156118c95780820380516001836020036101000a031916815260200191505b50838103825284818151815260200191508051906020019080838360005b838110156119025780820151818401526020810190506118e7565b50505050905090810190601f16801561192f5780820380516001836020036101000a031916815260200191505b5094505050505060405180910390a160016000836040518082805190602001908083835b6020831015156119785780518252602082019150602081019050602083039250611953565b6001836020036101000a0380198251168184511680821785525050505050509050019150509081526020016040518091039020826040518082805190602001908083835b6020831015156119e157805182526020820191506020810190506020830392506119bc565b6001836020036101000a038019825116818451168082178552505050505050905001915050908152602001604051809103902060006101000a81548160ff021916908315150217905550505050565b600080600160009054906101000a900473ffffffffffffffffffffffffffffffffffffffff1673ffffffffffffffffffffffffffffffffffffffff163373ffffffffffffffffffffffffffffffffffffffff16141515611a8f57600080fd5b600090505b8251811015611ad457611abd8382815181101515611aae57fe5b90602001906020020151611ada565b15611ac757600191505b8080600101915050611a94565b50919050565b6000600160009054906101000a900473ffffffffffffffffffffffffffffffffffffffff1673ffffffffffffffffffffffffffffffffffffffff163373ffffffffffffffffffffffffffffffffffffffff16141515611b3857600080fd5b600260008373ffffffffffffffffffffffffffffffffffffffff1673ffffffffffffffffffffffffffffffffffffffff16815260200190815260200160002060009054906101000a900460ff161515611cb1576001600260008473ffffffffffffffffffffffffffffffffffffffff1673ffffffffffffffffffffffffffffffffffffffff16815260200190815260200160002060006101000a81548160ff02191690831515021790555060038290806001815401808255809150509060018203906000526020600020016000909192909190916101000a81548173ffffffffffffffffffffffffffffffffffffffff021916908373ffffffffffffffffffffffffffffffffffffffff160217905550507fee71faa2d1e96ac74ee4023d6ffa8abfa43b7648f51e3dbd8ec561823e9df13282604051808273ffffffffffffffffffffffffffffffffffffffff1673ffffffffffffffffffffffffffffffffffffffff16815260200191505060405180910390a1600190505b919050565b600160009054906101000a900473ffffffffffffffffffffffffffffffffffffffff1673ffffffffffffffffffffffffffffffffffffffff163373ffffffffffffffffffffffffffffffffffffffff16141515611d1257600080fd5b600073ffffffffffffffffffffffffffffffffffffffff168173ffffffffffffffffffffffffffffffffffffffff1614151515611d4e57600080fd5b8073ffffffffffffffffffffffffffffffffffffffff16600160009054906101000a900473ffffffffffffffffffffffffffffffffffffffff1673ffffffffffffffffffffffffffffffffffffffff167f8be0079c531659141344cd1fd0a4f28419497f9722a3daafe3b4186f6b6457e060405160405180910390a380600160006101000a81548173ffffffffffffffffffffffffffffffffffffffff021916908373ffffffffffffffffffffffffffffffffffffffff16021790555050565b60026020528060005260406000206000915054906101000a900460ff1681565b60056020528060005260406000206000915054906101000a900473ffffffffffffffffffffffffffffffffffffffff1681565b60008090505b600780549050811015611fa257600781815481101515611e8357fe5b9060005260206000200160009054906101000a900473ffffffffffffffffffffffffffffffffffffffff1673ffffffffffffffffffffffffffffffffffffffff168273ffffffffffffffffffffffffffffffffffffffff161415611f95576007600160078054905003815481101515611ef857fe5b9060005260206000200160009054906101000a900473ffffffffffffffffffffffffffffffffffffffff16600782815481101515611f3257fe5b9060005260206000200160006101000a81548173ffffffffffffffffffffffffffffffffffffffff021916908373ffffffffffffffffffffffffffffffffffffffff1602179055506007805480919060019003611f8f9190612265565b50611fa3565b8080600101915050611e67565b5b5050565b6040805190810160405280600781526020017f4f776e61626c65000000000000000000000000000000000000000000000000008152506040805190810160405280600581526020017f312e392e3000000000000000000000000000000000000000000000000000000081525061201d82826116bf565b15151561202957600080fd5b82600160006101000a81548173ffffffffffffffffffffffffffffffffffffffff021916908373ffffffffffffffffffffffffffffffffffffffff1602179055507fdd117a11c22118c9dee4b5a67ce578bc44529dce21ee0ccc439588fbb9fb4ea38282604051808060200180602001838103835285818151815260200191508051906020019080838360005b838110156120d15780820151818401526020810190506120b6565b50505050905090810190601f1680156120fe5780820380516001836020036101000a031916815260200191505b50838103825284818151815260200191508051906020019080838360005b8381101561213757808201518184015260208101905061211c565b50505050905090810190601f1680156121645780820380516001836020036101000a031916815260200191505b5094505050505060405180910390a160016000836040518082805190602001908083835b6020831015156121ad5780518252602082019150602081019050602083039250612188565b6001836020036101000a0380198251168184511680821785525050505050509050019150509081526020016040518091039020826040518082805190602001908083835b60208310151561221657805182526020820191506020810190506020830392506121f1565b6001836020036101000a038019825116818451168082178552505050505050905001915050908152602001604051809103902060006101000a81548160ff021916908315150217905550505050565b81548183558181111561228c5781836000526020600020918201910161228b9190612291565b5b505050565b6122b391905b808211156122af576000816000905550600101612297565b5090565b905600a165627a7a72305820b22f50fa599403383211364f889de2ab0aad546f55493cdb7edb5dbf778899f10029",
  "source": "pragma solidity ^0.4.24;\n\nimport \"zos-lib/contracts/migrations/Migratable.sol\";\nimport \"../access/Blacklist.sol\";\n\n\n/**\n * @title Nexty governance smart contract\n */\ncontract Nexty is Migratable, Blacklist {\n  mapping(address => uint256) balances;\n  mapping(address => address) public coinbase;\n  mapping(address => bool) public sealer;\n  \n  address[] public signers;\n  address[] public holders;\n\n  event SetCoinbase(address _holder, address _coinbase);\n  event UnSetCoinbase(address _holder, address _coinbase);\n\n  /**\n   * Check if address is a valid destination to transfer tokens to\n   * - must not be zero address\n   * - must not be the token address\n   * - must not be the owner's address\n   * - must not be the sender's address\n   */\n  modifier validDestination(address to) {\n    require(to != address(0x0));\n    require(to != address(this));\n    require(to != owner);\n    require(to != msg.sender);\n    _;\n  }\n\n  /**\n   * Token contract initialize\n   */\n  function initialize() isInitializer(\"Nexty\", \"0.1\") public {\n  }\n\n  /**\n   * @dev Get all the list of current token holder.\n   * @return array of all token holder.\n   */\n  function getHolders() public view returns (address[]) {\n    return holders;\n  }\n\n  /**\n   * @dev Get all the list of current singer.\n   */\n  function getSigners() public view returns (address[]) {\n    return signers;\n  }\n\n  /**\n   * Token holder can call method to set their coinbase for mining.\n   *\n   * @param _coinbase Destination address\n   */\n  function setCoinbase(address _coinbase) public validDestination(_coinbase) returns (bool) {\n    require(balances[msg.sender] > 0);\n    require(sealer[msg.sender] == false);\n    \n    coinbase[_coinbase] = msg.sender;\n    signers.push(_coinbase);\n    sealer[msg.sender] = true;\n    emit SetCoinbase(msg.sender, _coinbase);\n    return true;\n  }\n\n  /**\n   * Token holder can call method to remove their coinbase and reset to other coinbase later for mining.\n   *\n   * @param _coinbase Destination address\n   */\n  function unSetCoinbase(address _coinbase) public returns (bool) {\n    require(coinbase[_coinbase] == msg.sender);\n    require(sealer[msg.sender] == true);\n\n    delete coinbase[_coinbase];\n    removeSigner(_coinbase);\n    delete sealer[msg.sender];\n    emit UnSetCoinbase(msg.sender, _coinbase);\n    return true;\n  }\n\n  /**\n   * @dev Remove a specific address/account out of signer list\n   */\n  function removeSigner(address _signer) internal {\n    for (uint i = 0; i < signers.length; i++) {\n      if (_signer == signers[i]) {\n        signers[i] = signers[signers.length - 1];\n        signers.length--;\n        return;\n      }\n    }\n  }\n}",
  "sourcePath": "C:\\Users\\bestb\\Desktop\\Dapps\\nexty\\nexty-governance\\contracts\\governance\\Nexty.sol",
  "compiler": {
    "name": "solc",
    "version": "0.4.24+commit.e67f0147.Emscripten.clang"
  },
  "schemaVersion": "2.0.1",
  "updatedAt": "2018-10-17T09:55:59.138Z"
}