{
  "contractName": "NextyManager",
  "abi": [
    {
      "constant": true,
      "inputs": [
        {
          "name": "",
          "type": "address"
        }
      ],
      "name": "isCoinbase",
      "outputs": [
        {
          "name": "",
          "type": "bool"
        }
      ],
      "payable": false,
      "stateMutability": "view",
      "type": "function"
    },
    {
      "constant": true,
      "inputs": [
        {
          "name": "",
          "type": "uint256"
        }
      ],
      "name": "coinbases",
      "outputs": [
        {
          "name": "",
          "type": "address"
        }
      ],
      "payable": false,
      "stateMutability": "view",
      "type": "function"
    },
    {
      "constant": true,
      "inputs": [
        {
          "name": "",
          "type": "address"
        }
      ],
      "name": "getSealer",
      "outputs": [
        {
          "name": "",
          "type": "address"
        }
      ],
      "payable": false,
      "stateMutability": "view",
      "type": "function"
    },
    {
      "constant": true,
      "inputs": [],
      "name": "voteAddress",
      "outputs": [
        {
          "name": "",
          "type": "address"
        }
      ],
      "payable": false,
      "stateMutability": "view",
      "type": "function"
    },
    {
      "constant": true,
      "inputs": [],
      "name": "LOCK_DURATION",
      "outputs": [
        {
          "name": "",
          "type": "uint256"
        }
      ],
      "payable": false,
      "stateMutability": "view",
      "type": "function"
    },
    {
      "constant": true,
      "inputs": [],
      "name": "owner",
      "outputs": [
        {
          "name": "",
          "type": "address"
        }
      ],
      "payable": false,
      "stateMutability": "view",
      "type": "function"
    },
    {
      "constant": true,
      "inputs": [],
      "name": "ntfAddress",
      "outputs": [
        {
          "name": "",
          "type": "address"
        }
      ],
      "payable": false,
      "stateMutability": "view",
      "type": "function"
    },
    {
      "constant": true,
      "inputs": [
        {
          "name": "",
          "type": "address"
        }
      ],
      "name": "sealers",
      "outputs": [
        {
          "name": "status",
          "type": "uint8"
        },
        {
          "name": "balance",
          "type": "uint256"
        },
        {
          "name": "coinbase",
          "type": "address"
        },
        {
          "name": "unlockTime",
          "type": "uint256"
        }
      ],
      "payable": false,
      "stateMutability": "view",
      "type": "function"
    },
    {
      "constant": true,
      "inputs": [],
      "name": "MIN_NTF_AMOUNT",
      "outputs": [
        {
          "name": "",
          "type": "uint256"
        }
      ],
      "payable": false,
      "stateMutability": "view",
      "type": "function"
    },
    {
      "constant": true,
      "inputs": [
        {
          "name": "contractName",
          "type": "string"
        },
        {
          "name": "migrationId",
          "type": "string"
        }
      ],
      "name": "isMigrated",
      "outputs": [
        {
          "name": "",
          "type": "bool"
        }
      ],
      "payable": false,
      "stateMutability": "view",
      "type": "function"
    },
    {
      "constant": false,
      "inputs": [
        {
          "name": "newOwner",
          "type": "address"
        }
      ],
      "name": "transferOwnership",
      "outputs": [],
      "payable": false,
      "stateMutability": "nonpayable",
      "type": "function"
    },
    {
      "anonymous": false,
      "inputs": [
        {
          "indexed": false,
          "name": "_sealer",
          "type": "address"
        },
        {
          "indexed": false,
          "name": "_tokens",
          "type": "uint256"
        }
      ],
      "name": "Deposited",
      "type": "event"
    },
    {
      "anonymous": false,
      "inputs": [
        {
          "indexed": false,
          "name": "_sealer",
          "type": "address"
        },
        {
          "indexed": false,
          "name": "_coinbase",
          "type": "address"
        }
      ],
      "name": "Joined",
      "type": "event"
    },
    {
      "anonymous": false,
      "inputs": [
        {
          "indexed": false,
          "name": "_sealer",
          "type": "address"
        },
        {
          "indexed": false,
          "name": "_coinbase",
          "type": "address"
        }
      ],
      "name": "Left",
      "type": "event"
    },
    {
      "anonymous": false,
      "inputs": [
        {
          "indexed": false,
          "name": "_sealer",
          "type": "address"
        },
        {
          "indexed": false,
          "name": "_tokens",
          "type": "uint256"
        }
      ],
      "name": "Withdrawn",
      "type": "event"
    },
    {
      "anonymous": false,
      "inputs": [
        {
          "indexed": false,
          "name": "_sealer",
          "type": "address"
        }
      ],
      "name": "Banned",
      "type": "event"
    },
    {
      "anonymous": false,
      "inputs": [
        {
          "indexed": false,
          "name": "_sealer",
          "type": "address"
        }
      ],
      "name": "Unbanned",
      "type": "event"
    },
    {
      "anonymous": false,
      "inputs": [
        {
          "indexed": true,
          "name": "previousOwner",
          "type": "address"
        },
        {
          "indexed": true,
          "name": "newOwner",
          "type": "address"
        }
      ],
      "name": "OwnershipTransferred",
      "type": "event"
    },
    {
      "anonymous": false,
      "inputs": [
        {
          "indexed": false,
          "name": "contractName",
          "type": "string"
        },
        {
          "indexed": false,
          "name": "migrationId",
          "type": "string"
        }
      ],
      "name": "Migrated",
      "type": "event"
    },
    {
      "constant": false,
      "inputs": [
        {
          "name": "_ntfAddress",
          "type": "address"
        }
      ],
      "name": "initialize",
      "outputs": [],
      "payable": false,
      "stateMutability": "nonpayable",
      "type": "function"
    },
    {
      "constant": false,
      "inputs": [
        {
          "name": "_to",
          "type": "address"
        }
      ],
      "name": "moveVoteContract",
      "outputs": [],
      "payable": false,
      "stateMutability": "nonpayable",
      "type": "function"
    },
    {
      "constant": true,
      "inputs": [
        {
          "name": "_address",
          "type": "address"
        }
      ],
      "name": "isBanned",
      "outputs": [
        {
          "name": "",
          "type": "bool"
        }
      ],
      "payable": false,
      "stateMutability": "view",
      "type": "function"
    },
    {
      "constant": false,
      "inputs": [
        {
          "name": "_address",
          "type": "address"
        }
      ],
      "name": "sealerLock",
      "outputs": [],
      "payable": false,
      "stateMutability": "nonpayable",
      "type": "function"
    },
    {
      "constant": false,
      "inputs": [
        {
          "name": "_address",
          "type": "address"
        }
      ],
      "name": "sealerUnlock",
      "outputs": [],
      "payable": false,
      "stateMutability": "nonpayable",
      "type": "function"
    },
    {
      "constant": false,
      "inputs": [
        {
          "name": "tokens",
          "type": "uint256"
        }
      ],
      "name": "deposit",
      "outputs": [
        {
          "name": "",
          "type": "bool"
        }
      ],
      "payable": false,
      "stateMutability": "nonpayable",
      "type": "function"
    },
    {
      "constant": false,
      "inputs": [
        {
          "name": "_coinbase",
          "type": "address"
        }
      ],
      "name": "join",
      "outputs": [
        {
          "name": "",
          "type": "bool"
        }
      ],
      "payable": false,
      "stateMutability": "nonpayable",
      "type": "function"
    },
    {
      "constant": false,
      "inputs": [],
      "name": "leave",
      "outputs": [
        {
          "name": "",
          "type": "bool"
        }
      ],
      "payable": false,
      "stateMutability": "nonpayable",
      "type": "function"
    },
    {
      "constant": false,
      "inputs": [],
      "name": "withdraw",
      "outputs": [
        {
          "name": "",
          "type": "bool"
        }
      ],
      "payable": false,
      "stateMutability": "nonpayable",
      "type": "function"
    },
    {
      "constant": true,
      "inputs": [
        {
          "name": "_address",
          "type": "address"
        }
      ],
      "name": "getStatus",
      "outputs": [
        {
          "name": "",
          "type": "uint256"
        }
      ],
      "payable": false,
      "stateMutability": "view",
      "type": "function"
    },
    {
      "constant": true,
      "inputs": [
        {
          "name": "_address",
          "type": "address"
        }
      ],
      "name": "getBalance",
      "outputs": [
        {
          "name": "",
          "type": "uint256"
        }
      ],
      "payable": false,
      "stateMutability": "view",
      "type": "function"
    },
    {
      "constant": true,
      "inputs": [
        {
          "name": "_address",
          "type": "address"
        }
      ],
      "name": "getCoinbase",
      "outputs": [
        {
          "name": "",
          "type": "address"
        }
      ],
      "payable": false,
      "stateMutability": "view",
      "type": "function"
    },
    {
      "constant": true,
      "inputs": [
        {
          "name": "_address",
          "type": "address"
        }
      ],
      "name": "getUnlockTime",
      "outputs": [
        {
          "name": "",
          "type": "uint256"
        }
      ],
      "payable": false,
      "stateMutability": "view",
      "type": "function"
    },
    {
      "constant": true,
      "inputs": [
        {
          "name": "_address",
          "type": "address"
        }
      ],
      "name": "isWithdrawable",
      "outputs": [
        {
          "name": "",
          "type": "bool"
        }
      ],
      "payable": false,
      "stateMutability": "view",
      "type": "function"
    }
  ],
  "bytecode": "0x608060405234801561001057600080fd5b50612ec5806100206000396000f300608060405260043610610149576000357c0100000000000000000000000000000000000000000000000000000000900463ffffffff16806302a184841461014e5780630a9a3f07146101a95780630d8754ac1461022c5780630ebf0de7146102875780631c1938de146102f45780632041d33f1461033757806328ffe6c8146103ba57806330ccebb5146104155780633ccfd60b1461046c5780633d6dc9281461049b578063485d3834146104f25780638da5cb5b1461051d578063972dce571461057457806397f735d5146105b7578063a8394d0714610612578063aa61aef314610669578063b22ff4541461070f578063b6b55f251461073a578063c0bac1a81461077f578063c4d66de814610846578063d66d9e1914610889578063da7af7a4146108b8578063dbed1e88146108fb578063f2fde38b14610952578063f8b2cb4f14610995575b600080fd5b34801561015a57600080fd5b5061018f600480360381019080803573ffffffffffffffffffffffffffffffffffffffff1690602001909291905050506109ec565b604051808215151515815260200191505060405180910390f35b3480156101b557600080fd5b506101ea600480360381019080803573ffffffffffffffffffffffffffffffffffffffff169060200190929190505050610b1d565b604051808273ffffffffffffffffffffffffffffffffffffffff1673ffffffffffffffffffffffffffffffffffffffff16815260200191505060405180910390f35b34801561023857600080fd5b5061026d600480360381019080803573ffffffffffffffffffffffffffffffffffffffff169060200190929190505050610b89565b604051808215151515815260200191505060405180910390f35b34801561029357600080fd5b506102b260048036038101908080359060200190929190505050610ba9565b604051808273ffffffffffffffffffffffffffffffffffffffff1673ffffffffffffffffffffffffffffffffffffffff16815260200191505060405180910390f35b34801561030057600080fd5b50610335600480360381019080803573ffffffffffffffffffffffffffffffffffffffff169060200190929190505050610be7565b005b34801561034357600080fd5b50610378600480360381019080803573ffffffffffffffffffffffffffffffffffffffff169060200190929190505050610d76565b604051808273ffffffffffffffffffffffffffffffffffffffff1673ffffffffffffffffffffffffffffffffffffffff16815260200191505060405180910390f35b3480156103c657600080fd5b506103fb600480360381019080803573ffffffffffffffffffffffffffffffffffffffff169060200190929190505050610da9565b604051808215151515815260200191505060405180910390f35b34801561042157600080fd5b50610456600480360381019080803573ffffffffffffffffffffffffffffffffffffffff1690602001909291905050506115a4565b6040518082815260200191505060405180910390f35b34801561047857600080fd5b50610481611605565b604051808215151515815260200191505060405180910390f35b3480156104a757600080fd5b506104b06119c7565b604051808273ffffffffffffffffffffffffffffffffffffffff1673ffffffffffffffffffffffffffffffffffffffff16815260200191505060405180910390f35b3480156104fe57600080fd5b506105076119ed565b6040518082815260200191505060405180910390f35b34801561052957600080fd5b506105326119f2565b604051808273ffffffffffffffffffffffffffffffffffffffff1673ffffffffffffffffffffffffffffffffffffffff16815260200191505060405180910390f35b34801561058057600080fd5b506105b5600480360381019080803573ffffffffffffffffffffffffffffffffffffffff169060200190929190505050611a18565b005b3480156105c357600080fd5b506105f8600480360381019080803573ffffffffffffffffffffffffffffffffffffffff169060200190929190505050611cfb565b604051808215151515815260200191505060405180910390f35b34801561061e57600080fd5b50610627611d6c565b604051808273ffffffffffffffffffffffffffffffffffffffff1673ffffffffffffffffffffffffffffffffffffffff16815260200191505060405180910390f35b34801561067557600080fd5b506106aa600480360381019080803573ffffffffffffffffffffffffffffffffffffffff169060200190929190505050611d92565b604051808560048111156106ba57fe5b60ff1681526020018481526020018373ffffffffffffffffffffffffffffffffffffffff1673ffffffffffffffffffffffffffffffffffffffff16815260200182815260200194505050505060405180910390f35b34801561071b57600080fd5b50610724611def565b6040518082815260200191505060405180910390f35b34801561074657600080fd5b5061076560048036038101908080359060200190929190505050611df4565b604051808215151515815260200191505060405180910390f35b34801561078b57600080fd5b5061082c600480360381019080803590602001908201803590602001908080601f0160208091040260200160405190810160405280939291908181526020018383808284378201915050505050509192919290803590602001908201803590602001908080601f016020809104026020016040519081016040528093929190818152602001838380828437820191505050505050919291929050505061203a565b604051808215151515815260200191505060405180910390f35b34801561085257600080fd5b50610887600480360381019080803573ffffffffffffffffffffffffffffffffffffffff169060200190929190505050612125565b005b34801561089557600080fd5b5061089e612424565b604051808215151515815260200191505060405180910390f35b3480156108c457600080fd5b506108f9600480360381019080803573ffffffffffffffffffffffffffffffffffffffff169060200190929190505050612890565b005b34801561090757600080fd5b5061093c600480360381019080803573ffffffffffffffffffffffffffffffffffffffff169060200190929190505050612930565b6040518082815260200191505060405180910390f35b34801561095e57600080fd5b50610993600480360381019080803573ffffffffffffffffffffffffffffffffffffffff16906020019092919050505061297c565b005b3480156109a157600080fd5b506109d6600480360381019080803573ffffffffffffffffffffffffffffffffffffffff169060200190929190505050612ad4565b6040518082815260200191505060405180910390f35b6000600160048111156109fb57fe5b600460008473ffffffffffffffffffffffffffffffffffffffff1673ffffffffffffffffffffffffffffffffffffffff16815260200190815260200160002060000160009054906101000a900460ff166004811115610a5657fe5b14158015610ac95750600480811115610a6b57fe5b600460008473ffffffffffffffffffffffffffffffffffffffff1673ffffffffffffffffffffffffffffffffffffffff16815260200190815260200160002060000160009054906101000a900460ff166004811115610ac657fe5b14155b8015610b16575042600460008473ffffffffffffffffffffffffffffffffffffffff1673ffffffffffffffffffffffffffffffffffffffff16815260200190815260200160002060030154105b9050919050565b6000600460008373ffffffffffffffffffffffffffffffffffffffff1673ffffffffffffffffffffffffffffffffffffffff16815260200190815260200160002060020160009054906101000a900473ffffffffffffffffffffffffffffffffffffffff169050919050565b60066020528060005260406000206000915054906101000a900460ff1681565b600581815481101515610bb857fe5b906000526020600020016000915054906101000a900473ffffffffffffffffffffffffffffffffffffffff1681565b600360009054906101000a900473ffffffffffffffffffffffffffffffffffffffff1673ffffffffffffffffffffffffffffffffffffffff163373ffffffffffffffffffffffffffffffffffffffff16141515610cac576040517f08c379a00000000000000000000000000000000000000000000000000000000081526004018080602001828103825260148152602001807f6f6e6c7920766f74696e6720636f6e747261637400000000000000000000000081525060200191505060405180910390fd5b6002600460008373ffffffffffffffffffffffffffffffffffffffff1673ffffffffffffffffffffffffffffffffffffffff16815260200190815260200160002060000160006101000a81548160ff02191690836004811115610d0b57fe5b02179055507f2ab91b53354938415bb6962c4322231cd4cb2c84930f1a4b9abbedc2fe8abe7281604051808273ffffffffffffffffffffffffffffffffffffffff1673ffffffffffffffffffffffffffffffffffffffff16815260200191505060405180910390a150565b60076020528060005260406000206000915054906101000a900473ffffffffffffffffffffffffffffffffffffffff1681565b6000600480811115610db757fe5b600460003373ffffffffffffffffffffffffffffffffffffffff1673ffffffffffffffffffffffffffffffffffffffff16815260200190815260200160002060000160009054906101000a900460ff166004811115610e1257fe5b14151515610e88576040517f08c379a00000000000000000000000000000000000000000000000000000000081526004018080602001828103825260078152602001807f62616e6e6564200000000000000000000000000000000000000000000000000081525060200191505060405180910390fd5b60016004811115610e9557fe5b600460003373ffffffffffffffffffffffffffffffffffffffff1673ffffffffffffffffffffffffffffffffffffffff16815260200190815260200160002060000160009054906101000a900460ff166004811115610ef057fe5b14151515610f66576040517f08c379a000000000000000000000000000000000000000000000000000000000815260040180806020018281038252600f8152602001807f616c7265616479206a6f696e656420000000000000000000000000000000000081525060200191505060405180910390fd5b6002600460003373ffffffffffffffffffffffffffffffffffffffff1673ffffffffffffffffffffffffffffffffffffffff1681526020019081526020016000206001015410151515611021576040517f08c379a000000000000000000000000000000000000000000000000000000000815260040180806020018281038252600e8152602001807f6e6f7420656e6f756768206e746600000000000000000000000000000000000081525060200191505060405180910390fd5b81600660008273ffffffffffffffffffffffffffffffffffffffff1673ffffffffffffffffffffffffffffffffffffffff16815260200190815260200160002060009054906101000a900460ff161515156110e4576040517f08c379a00000000000000000000000000000000000000000000000000000000081526004018080602001828103825260158152602001807f636f696e6261736520616c72656164792075736564000000000000000000000081525060200191505060405180910390fd5b600073ffffffffffffffffffffffffffffffffffffffff168173ffffffffffffffffffffffffffffffffffffffff1614151515611189576040517f08c379a000000000000000000000000000000000000000000000000000000000815260040180806020018281038252600d8152602001807f636f696e62617365207a65726f0000000000000000000000000000000000000081525060200191505060405180910390fd5b3073ffffffffffffffffffffffffffffffffffffffff168173ffffffffffffffffffffffffffffffffffffffff161415151561122d576040517f08c379a00000000000000000000000000000000000000000000000000000000081526004018080602001828103825260178152602001807f73616d6520636f6e74726163742773206164647265737300000000000000000081525060200191505060405180910390fd5b600160009054906101000a900473ffffffffffffffffffffffffffffffffffffffff1673ffffffffffffffffffffffffffffffffffffffff168173ffffffffffffffffffffffffffffffffffffffff16141515156112f3576040517f08c379a00000000000000000000000000000000000000000000000000000000081526004018080602001828103825260148152602001807f73616d65206f776e65722773206164647265737300000000000000000000000081525060200191505060405180910390fd5b3373ffffffffffffffffffffffffffffffffffffffff168173ffffffffffffffffffffffffffffffffffffffff1614151515611397576040517f08c379a00000000000000000000000000000000000000000000000000000000081526004018080602001828103825260158152602001807f73616d652073656e64657227732061646472657373000000000000000000000081525060200191505060405180910390fd5b82600460003373ffffffffffffffffffffffffffffffffffffffff1673ffffffffffffffffffffffffffffffffffffffff16815260200190815260200160002060020160006101000a81548173ffffffffffffffffffffffffffffffffffffffff021916908373ffffffffffffffffffffffffffffffffffffffff1602179055506001600460003373ffffffffffffffffffffffffffffffffffffffff1673ffffffffffffffffffffffffffffffffffffffff16815260200190815260200160002060000160006101000a81548160ff0219169083600481111561147757fe5b021790555033600760008573ffffffffffffffffffffffffffffffffffffffff1673ffffffffffffffffffffffffffffffffffffffff16815260200190815260200160002060006101000a81548173ffffffffffffffffffffffffffffffffffffffff021916908373ffffffffffffffffffffffffffffffffffffffff16021790555061150383612b20565b7f7702dccda75540ad1dca8d5276c048f4a5c0e4203f6da4be214bfb1901b203ea3384604051808373ffffffffffffffffffffffffffffffffffffffff1673ffffffffffffffffffffffffffffffffffffffff1681526020018273ffffffffffffffffffffffffffffffffffffffff1673ffffffffffffffffffffffffffffffffffffffff1681526020019250505060405180910390a16001915050919050565b60006115fe600460008473ffffffffffffffffffffffffffffffffffffffff1673ffffffffffffffffffffffffffffffffffffffff16815260200190815260200160002060000160009054906101000a900460ff16612be1565b9050919050565b60008060048081111561161457fe5b600460003373ffffffffffffffffffffffffffffffffffffffff1673ffffffffffffffffffffffffffffffffffffffff16815260200190815260200160002060000160009054906101000a900460ff16600481111561166f57fe5b141515156116e5576040517f08c379a00000000000000000000000000000000000000000000000000000000081526004018080602001828103825260078152602001807f62616e6e6564200000000000000000000000000000000000000000000000000081525060200191505060405180910390fd5b6116ee336109ec565b1515611762576040517f08c379a00000000000000000000000000000000000000000000000000000000081526004018080602001828103825260208152602001807f756e61626c6520746f20776974686472617720617420746865206d6f6d656e7481525060200191505060405180910390fd5b600460003373ffffffffffffffffffffffffffffffffffffffff1673ffffffffffffffffffffffffffffffffffffffff168152602001908152602001600020600101549050600260009054906101000a900473ffffffffffffffffffffffffffffffffffffffff1673ffffffffffffffffffffffffffffffffffffffff1663a9059cbb33836040518363ffffffff167c0100000000000000000000000000000000000000000000000000000000028152600401808373ffffffffffffffffffffffffffffffffffffffff1673ffffffffffffffffffffffffffffffffffffffff16815260200182815260200192505050602060405180830381600087803b15801561186c57600080fd5b505af1158015611880573d6000803e3d6000fd5b505050506040513d602081101561189657600080fd5b8101908080519060200190929190505050506000600460003373ffffffffffffffffffffffffffffffffffffffff1673ffffffffffffffffffffffffffffffffffffffff168152602001908152602001600020600101819055506003600460003373ffffffffffffffffffffffffffffffffffffffff1673ffffffffffffffffffffffffffffffffffffffff16815260200190815260200160002060000160006101000a81548160ff0219169083600481111561194f57fe5b02179055507f7084f5476618d8e60b11ef0d7d3f06914655adb8793e28ff7f018d4c76d505d53382604051808373ffffffffffffffffffffffffffffffffffffffff1673ffffffffffffffffffffffffffffffffffffffff1681526020018281526020019250505060405180910390a1600191505090565b600360009054906101000a900473ffffffffffffffffffffffffffffffffffffffff1681565b601481565b600160009054906101000a900473ffffffffffffffffffffffffffffffffffffffff1681565b6000600360009054906101000a900473ffffffffffffffffffffffffffffffffffffffff1673ffffffffffffffffffffffffffffffffffffffff163373ffffffffffffffffffffffffffffffffffffffff16141515611adf576040517f08c379a00000000000000000000000000000000000000000000000000000000081526004018080602001828103825260148152602001807f6f6e6c7920766f74696e6720636f6e747261637400000000000000000000000081525060200191505060405180910390fd5b600460003373ffffffffffffffffffffffffffffffffffffffff1673ffffffffffffffffffffffffffffffffffffffff16815260200190815260200160002060020160009054906101000a900473ffffffffffffffffffffffffffffffffffffffff1690506000600460003373ffffffffffffffffffffffffffffffffffffffff1673ffffffffffffffffffffffffffffffffffffffff16815260200190815260200160002060020160006101000a81548173ffffffffffffffffffffffffffffffffffffffff021916908373ffffffffffffffffffffffffffffffffffffffff16021790555060048060003373ffffffffffffffffffffffffffffffffffffffff1673ffffffffffffffffffffffffffffffffffffffff16815260200190815260200160002060000160006101000a81548160ff02191690836004811115611c2457fe5b0217905550600760008273ffffffffffffffffffffffffffffffffffffffff1673ffffffffffffffffffffffffffffffffffffffff16815260200190815260200160002060006101000a81549073ffffffffffffffffffffffffffffffffffffffff0219169055611c9481612c8c565b7f30d1df1214d91553408ca5384ce29e10e5866af8423c628be22860e41fb8100582604051808273ffffffffffffffffffffffffffffffffffffffff1673ffffffffffffffffffffffffffffffffffffffff16815260200191505060405180910390a15050565b6000600480811115611d0957fe5b600460008473ffffffffffffffffffffffffffffffffffffffff1673ffffffffffffffffffffffffffffffffffffffff16815260200190815260200160002060000160009054906101000a900460ff166004811115611d6457fe5b149050919050565b600260009054906101000a900473ffffffffffffffffffffffffffffffffffffffff1681565b60046020528060005260406000206000915090508060000160009054906101000a900460ff16908060010154908060020160009054906101000a900473ffffffffffffffffffffffffffffffffffffffff16908060030154905084565b600281565b6000600260009054906101000a900473ffffffffffffffffffffffffffffffffffffffff1673ffffffffffffffffffffffffffffffffffffffff166323b872dd3330856040518463ffffffff167c0100000000000000000000000000000000000000000000000000000000028152600401808473ffffffffffffffffffffffffffffffffffffffff1673ffffffffffffffffffffffffffffffffffffffff1681526020018373ffffffffffffffffffffffffffffffffffffffff1673ffffffffffffffffffffffffffffffffffffffff1681526020018281526020019350505050602060405180830381600087803b158015611eef57600080fd5b505af1158015611f03573d6000803e3d6000fd5b505050506040513d6020811015611f1957600080fd5b810190808051906020019092919050505050611f8082600460003373ffffffffffffffffffffffffffffffffffffffff1673ffffffffffffffffffffffffffffffffffffffff16815260200190815260200160002060010154612e2a90919063ffffffff16565b600460003373ffffffffffffffffffffffffffffffffffffffff1673ffffffffffffffffffffffffffffffffffffffff168152602001908152602001600020600101819055507f2da466a7b24304f47e87fa2e1e5a81b9831ce54fec19055ce277ca2f39ba42c43383604051808373ffffffffffffffffffffffffffffffffffffffff1673ffffffffffffffffffffffffffffffffffffffff1681526020018281526020019250505060405180910390a160019050919050565b600080836040518082805190602001908083835b602083101515612073578051825260208201915060208101905060208303925061204e565b6001836020036101000a0380198251168184511680821785525050505050509050019150509081526020016040518091039020826040518082805190602001908083835b6020831015156120dc57805182526020820191506020810190506020830392506120b7565b6001836020036101000a038019825116818451168082178552505050505050905001915050908152602001604051809103902060009054906101000a900460ff16905092915050565b6040805190810160405280600c81526020017f4e657874794d616e6167657200000000000000000000000000000000000000008152506040805190810160405280600381526020017f302e31000000000000000000000000000000000000000000000000000000000081525061219b828261203a565b1515156121a757600080fd5b82600260006101000a81548173ffffffffffffffffffffffffffffffffffffffff021916908373ffffffffffffffffffffffffffffffffffffffff16021790555082600360006101000a81548173ffffffffffffffffffffffffffffffffffffffff021916908373ffffffffffffffffffffffffffffffffffffffff1602179055507fdd117a11c22118c9dee4b5a67ce578bc44529dce21ee0ccc439588fbb9fb4ea38282604051808060200180602001838103835285818151815260200191508051906020019080838360005b83811015612290578082015181840152602081019050612275565b50505050905090810190601f1680156122bd5780820380516001836020036101000a031916815260200191505b50838103825284818151815260200191508051906020019080838360005b838110156122f65780820151818401526020810190506122db565b50505050905090810190601f1680156123235780820380516001836020036101000a031916815260200191505b5094505050505060405180910390a160016000836040518082805190602001908083835b60208310151561236c5780518252602082019150602081019050602083039250612347565b6001836020036101000a0380198251168184511680821785525050505050509050019150509081526020016040518091039020826040518082805190602001908083835b6020831015156123d557805182526020820191506020810190506020830392506123b0565b6001836020036101000a038019825116818451168082178552505050505050905001915050908152602001604051809103902060006101000a81548160ff021916908315150217905550505050565b60008060048081111561243357fe5b600460003373ffffffffffffffffffffffffffffffffffffffff1673ffffffffffffffffffffffffffffffffffffffff16815260200190815260200160002060000160009054906101000a900460ff16600481111561248e57fe5b14151515612504576040517f08c379a00000000000000000000000000000000000000000000000000000000081526004018080602001828103825260078152602001807f62616e6e6564200000000000000000000000000000000000000000000000000081525060200191505060405180910390fd5b6001600481111561251157fe5b600460003373ffffffffffffffffffffffffffffffffffffffff1673ffffffffffffffffffffffffffffffffffffffff16815260200190815260200160002060000160009054906101000a900460ff16600481111561256c57fe5b1415156125e1576040517f08c379a000000000000000000000000000000000000000000000000000000000815260040180806020018281038252600b8152602001807f6e6f74206a6f696e65642000000000000000000000000000000000000000000081525060200191505060405180910390fd5b600460003373ffffffffffffffffffffffffffffffffffffffff1673ffffffffffffffffffffffffffffffffffffffff16815260200190815260200160002060020160009054906101000a900473ffffffffffffffffffffffffffffffffffffffff1690506000600460003373ffffffffffffffffffffffffffffffffffffffff1673ffffffffffffffffffffffffffffffffffffffff16815260200190815260200160002060020160006101000a81548173ffffffffffffffffffffffffffffffffffffffff021916908373ffffffffffffffffffffffffffffffffffffffff1602179055506002600460003373ffffffffffffffffffffffffffffffffffffffff1673ffffffffffffffffffffffffffffffffffffffff16815260200190815260200160002060000160006101000a81548160ff0219169083600481111561272757fe5b0217905550612740426014612e2a90919063ffffffff16565b600460003373ffffffffffffffffffffffffffffffffffffffff1673ffffffffffffffffffffffffffffffffffffffff16815260200190815260200160002060030181905550600760008273ffffffffffffffffffffffffffffffffffffffff1673ffffffffffffffffffffffffffffffffffffffff16815260200190815260200160002060006101000a81549073ffffffffffffffffffffffffffffffffffffffff02191690556127f181612c8c565b7f4b9ee4dd061ba088b22898a02491f3896a4a580c6cda8783ca579ee159f8e8c53382604051808373ffffffffffffffffffffffffffffffffffffffff1673ffffffffffffffffffffffffffffffffffffffff1681526020018273ffffffffffffffffffffffffffffffffffffffff1673ffffffffffffffffffffffffffffffffffffffff1681526020019250505060405180910390a1600191505090565b600160009054906101000a900473ffffffffffffffffffffffffffffffffffffffff1673ffffffffffffffffffffffffffffffffffffffff163373ffffffffffffffffffffffffffffffffffffffff161415156128ec57600080fd5b80600360006101000a81548173ffffffffffffffffffffffffffffffffffffffff021916908373ffffffffffffffffffffffffffffffffffffffff16021790555050565b6000600460008373ffffffffffffffffffffffffffffffffffffffff1673ffffffffffffffffffffffffffffffffffffffff168152602001908152602001600020600301549050919050565b600160009054906101000a900473ffffffffffffffffffffffffffffffffffffffff1673ffffffffffffffffffffffffffffffffffffffff163373ffffffffffffffffffffffffffffffffffffffff161415156129d857600080fd5b600073ffffffffffffffffffffffffffffffffffffffff168173ffffffffffffffffffffffffffffffffffffffff1614151515612a1457600080fd5b8073ffffffffffffffffffffffffffffffffffffffff16600160009054906101000a900473ffffffffffffffffffffffffffffffffffffffff1673ffffffffffffffffffffffffffffffffffffffff167f8be0079c531659141344cd1fd0a4f28419497f9722a3daafe3b4186f6b6457e060405160405180910390a380600160006101000a81548173ffffffffffffffffffffffffffffffffffffffff021916908373ffffffffffffffffffffffffffffffffffffffff16021790555050565b6000600460008373ffffffffffffffffffffffffffffffffffffffff1673ffffffffffffffffffffffffffffffffffffffff168152602001908152602001600020600101549050919050565b6001600660008373ffffffffffffffffffffffffffffffffffffffff1673ffffffffffffffffffffffffffffffffffffffff16815260200190815260200160002060006101000a81548160ff02191690831515021790555060058190806001815401808255809150509060018203906000526020600020016000909192909190916101000a81548173ffffffffffffffffffffffffffffffffffffffff021916908373ffffffffffffffffffffffffffffffffffffffff1602179055505050565b6000806004811115612bef57fe5b826004811115612bfb57fe5b1415612c0a5760009050612c87565b60016004811115612c1757fe5b826004811115612c2357fe5b1415612c325760019050612c87565b60026004811115612c3f57fe5b826004811115612c4b57fe5b1415612c5a5760029050612c87565b60036004811115612c6757fe5b826004811115612c7357fe5b1415612c825760039050612c87565b607f90505b919050565b600080600660008473ffffffffffffffffffffffffffffffffffffffff1673ffffffffffffffffffffffffffffffffffffffff16815260200190815260200160002060006101000a81548160ff021916908315150217905550600090505b600580549050811015612e2557600581815481101515612d0657fe5b9060005260206000200160009054906101000a900473ffffffffffffffffffffffffffffffffffffffff1673ffffffffffffffffffffffffffffffffffffffff168273ffffffffffffffffffffffffffffffffffffffff161415612e18576005600160058054905003815481101515612d7b57fe5b9060005260206000200160009054906101000a900473ffffffffffffffffffffffffffffffffffffffff16600582815481101515612db557fe5b9060005260206000200160006101000a81548173ffffffffffffffffffffffffffffffffffffffff021916908373ffffffffffffffffffffffffffffffffffffffff1602179055506005805480919060019003612e129190612e48565b50612e26565b8080600101915050612cea565b5b5050565b6000808284019050838110151515612e3e57fe5b8091505092915050565b815481835581811115612e6f57818360005260206000209182019101612e6e9190612e74565b5b505050565b612e9691905b80821115612e92576000816000905550600101612e7a565b5090565b905600a165627a7a72305820a84881c03f74a85fdefdd26960e348a47c08d66e78bfe1a47fb41fb27dc0edcc0029",
  "source": "//solium-disable linebreak-style\r\npragma solidity ^0.4.24;\r\n\r\nimport \"zos-lib/contracts/migrations/Migratable.sol\";\r\nimport \"openzeppelin-zos/contracts/ownership/Ownable.sol\";\r\nimport \"./SafeMath.sol\";\r\nimport \"./Blacklist.sol\";\r\n\r\ncontract NTFToken {\r\n    //need approve first with DApp to call this function\r\n    function transferFrom(address _from, address _to, uint _tokens) public returns (bool success);\r\n    //function for withdraw the deposited ntf amount\r\n    function transfer(address _to, uint256 _amount) public returns(bool success);\r\n}\r\n\r\n/**\r\n * @title Nexty sealers management smart contract\r\n */\r\ncontract NextyManager is Migratable, Ownable {\r\n    using SafeMath for uint256;\r\n\r\n    //minimum of deposited NTF to join\r\n    uint256 public constant MIN_NTF_AMOUNT = 2;\r\n    //minimum blocks number distance from last leaved to current chain blocknumber to withdrawable\r\n    uint256 public constant LOCK_DURATION = 10 * 2;\r\n\r\n    enum SealerStatus {\r\n        PENDING_ACTIVE,     //Sealer deposited enough NTFs into registration contract successfully.\r\n\r\n        ACTIVE,             //Sealer send request to become a sealer \r\n                            //and added into activation sealer set successfully\r\n\r\n        PENDING_WITHDRAW,   //Sealer send request to exit from activation sealer set successfully. \r\n                            //Sealer casted out of activation sealer set\r\n\r\n        WITHDRAWN,          //Sealer already withdrawn their deposit NTFs successfully. \r\n                            //They can only make withdrawal after withdrawal period.\r\n\r\n        PENALIZED           //Sealer marked as penalized node (update by consensus or voting result via dapp) \r\n                            //and cannot become active sealer and cannot withdraw balance neither.\r\n    }\r\n\r\n    struct Record {\r\n        SealerStatus status;\r\n        //ntf amount deposited\r\n        uint256 balance;\r\n        //sealer used address to seal blocks\r\n        address coinbase;\r\n        //withdrawable time after leaving\r\n        uint256 unlockTime;\r\n    }\r\n\r\n    //ntf token contract, unit used to join Nexty sealers\r\n    address public ntfAddress;\r\n    //voting smart contract to lock(bann) or unlock(unbann) a sealer\r\n    address public voteAddress;\r\n\r\n    //get invester address of a coinbase\r\n    mapping(address => Record) public sealers;\r\n\r\n    //address[] public coinbases;\r\n    address[] public coinbases;\r\n    //check if address of a coinbase\r\n    mapping(address => bool) public isCoinbase;\r\n    //get sealer's address of a coinbase address\r\n    mapping(address => address) public getSealer;\r\n\r\n    event Deposited(address _sealer, uint _tokens);\r\n    event Joined(address _sealer, address _coinbase);\r\n    event Left(address _sealer, address _coinbase);\r\n    event Withdrawn(address _sealer, uint256 _tokens);\r\n    event Banned(address _sealer);\r\n    event Unbanned(address _sealer);\r\n\r\n    /**\r\n    * Check if address is a valid destination to transfer tokens to\r\n    * - must not be zero address\r\n    * - must not be the token address\r\n    * - must not be the owner's address\r\n    * - must not be the sender's address\r\n    */\r\n    modifier validCoinbase(address _coinbase) {\r\n        require(!isCoinbase[_coinbase], \"coinbase already used\");\r\n        require(_coinbase != address(0x0), \"coinbase zero\");\r\n        require(_coinbase != address(this), \"same contract's address\");\r\n        require(_coinbase != owner, \"same owner's address\");\r\n        require(_coinbase != msg.sender, \"same sender's address\");\r\n        _;\r\n    }\r\n\r\n    modifier notBanned() {\r\n        require(sealers[msg.sender].status != SealerStatus.PENALIZED, \"banned \");\r\n        _;\r\n    }\r\n\r\n    modifier joinable() {\r\n        require(sealers[msg.sender].status != SealerStatus.ACTIVE, \"already joined \");\r\n        require(sealers[msg.sender].balance >= MIN_NTF_AMOUNT, \"not enough ntf\");\r\n        _;\r\n    }\r\n\r\n    modifier leaveable() {\r\n        require(sealers[msg.sender].status == SealerStatus.ACTIVE, \"not joined \");\r\n        _;\r\n    }\r\n\r\n    modifier withdrawable() {\r\n        require(isWithdrawable(msg.sender), \"unable to withdraw at the moment\");\r\n        _;\r\n    }\r\n\r\n    //only voting smart contract\r\n    modifier onlyVoteContract() {\r\n        require(msg.sender == voteAddress, \"only voting contract\");\r\n        _;\r\n    }\r\n\r\n    /**\r\n    *contract initialize\r\n    */\r\n    function initialize(address _ntfAddress) isInitializer(\"NextyManager\", \"0.1\") public {\r\n        //Ownable.initialize(_sender);\r\n        ntfAddress = _ntfAddress;\r\n        voteAddress = _ntfAddress;\r\n    }\r\n    /*\r\n    function NextyManager(address _ntfAddress, address _voteAddress) public {\r\n        ntfAddress = _ntfAddress;\r\n        voteAddress = _voteAddress;\r\n    }\r\n    */\r\n\r\n    //change voting smart contract address\r\n    function moveVoteContract(address _to) public onlyOwner {\r\n        voteAddress = _to;\r\n    }\r\n\r\n    //get bann status of a sealer's address\r\n    function isBanned(address _address) public view returns(bool) {\r\n        return (sealers[_address].status == SealerStatus.PENALIZED);\r\n    }\r\n\r\n    //voting contract's function\r\n    function sealerLock(address _address) external onlyVoteContract {\r\n        address _coinbase = sealers[msg.sender].coinbase;\r\n\r\n        sealers[msg.sender].coinbase = 0x0;\r\n        sealers[msg.sender].status = SealerStatus.PENALIZED;\r\n        //sealers[msg.sender].unlockTime = block.timestamp + LOCK_DURATION;\r\n        delete getSealer[_coinbase];\r\n        removeCoinbase(_coinbase);\r\n        emit Banned(_address);\r\n    }\r\n\r\n    function sealerUnlock(address _address) external onlyVoteContract {\r\n        sealers[_address].status = SealerStatus.PENDING_WITHDRAW;\r\n        emit Unbanned(_address);\r\n    }\r\n\r\n    ////////////////////////////////\r\n\r\n    function addCoinbase(address _coinbase) internal {\r\n        isCoinbase[_coinbase] = true;\r\n        coinbases.push(_coinbase);\r\n    }\r\n\r\n    function removeCoinbase(address _coinbase) internal {\r\n        isCoinbase[_coinbase] = false;\r\n        for (uint i = 0; i < coinbases.length; i++) {\r\n            if (_coinbase == coinbases[i]) {\r\n                coinbases[i] = coinbases[coinbases.length - 1];\r\n                coinbases.length--;\r\n                return;\r\n            }\r\n        }\r\n    }\r\n\r\n    /**\r\n    * Transfer the NTF from token holder to registration contract. \r\n    * Sealer might have to approve contract to transfer an amount of NTF before calling this function.\r\n    * @param tokens NTF Tokens to deposit\r\n    */\r\n    function deposit(uint256 tokens) public returns (bool) {\r\n        NTFToken(ntfAddress).transferFrom(msg.sender, address(this), tokens);\r\n        sealers[msg.sender].balance = (sealers[msg.sender].balance).add(tokens);\r\n        emit Deposited(msg.sender, tokens);\r\n        return true;\r\n    }\r\n        \r\n    /**\r\n    * To allow deposited NTF participate joining in as sealer. \r\n    * Participate already must deposit enough NTF via Deposit function. \r\n    * It takes coinbase as parameter.\r\n    * @param _coinbase Destination address\r\n    */\r\n    function join(address _coinbase) public notBanned joinable validCoinbase(_coinbase) returns (bool) {\r\n        sealers[msg.sender].coinbase = _coinbase;\r\n        sealers[msg.sender].status = SealerStatus.ACTIVE;\r\n        getSealer[_coinbase] = msg.sender;\r\n        addCoinbase(_coinbase);\r\n        emit Joined(msg.sender, _coinbase);\r\n        return true;\r\n    }\r\n\r\n    /**\r\n    * Request to exit out of activation sealer set\r\n    */\r\n    function leave() public notBanned leaveable returns (bool) {\r\n        address _coinbase = sealers[msg.sender].coinbase;\r\n\r\n        sealers[msg.sender].coinbase = 0x0;\r\n        sealers[msg.sender].status = SealerStatus.PENDING_WITHDRAW;\r\n        sealers[msg.sender].unlockTime = LOCK_DURATION.add(block.timestamp);\r\n        delete getSealer[_coinbase];\r\n        removeCoinbase(_coinbase);\r\n        emit Left(msg.sender, _coinbase);\r\n        return true;\r\n    }\r\n\r\n    /**\r\n    * To withdraw sealers NTF balance when they already exited and after withdrawal period.\r\n    */\r\n    function withdraw() public notBanned withdrawable returns (bool) {\r\n        uint256 tokens = sealers[msg.sender].balance;\r\n        NTFToken(ntfAddress).transfer(msg.sender, tokens);\r\n        sealers[msg.sender].balance = 0;\r\n        sealers[msg.sender].status = SealerStatus.WITHDRAWN;\r\n        emit Withdrawn(msg.sender, tokens);\r\n        return true;\r\n    }\r\n\r\n    //get values functions\r\n\r\n    function getStatusCode(SealerStatus _status) private returns(uint256){\r\n        if (_status == SealerStatus.PENDING_ACTIVE) return 0;\r\n        if (_status == SealerStatus.ACTIVE) return 1;\r\n        if (_status == SealerStatus.PENDING_WITHDRAW) return 2;\r\n        if (_status == SealerStatus.WITHDRAWN) return 3;\r\n        return 127;\r\n    }\r\n\r\n    function getStatus(address _address) public view returns(uint256) {\r\n        return getStatusCode(sealers[_address].status);\r\n    }\r\n\r\n    function getBalance(address _address) public view returns(uint256) {\r\n        return sealers[_address].balance;\r\n    }  \r\n\r\n    function getCoinbase(address _address) public view returns(address) {\r\n        return sealers[_address].coinbase;\r\n    }  \r\n\r\n    function getUnlockTime(address _address) public view returns(uint256) {\r\n        return sealers[_address].unlockTime;\r\n    }\r\n\r\n    function isWithdrawable(address _address) public view returns(bool) {\r\n        return  \r\n        (sealers[_address].status != SealerStatus.ACTIVE) &&\r\n        (sealers[_address].status != SealerStatus.PENALIZED) &&\r\n        (sealers[_address].unlockTime < block.timestamp);\r\n    }\r\n\r\n}",
  "sourcePath": "C:\\Users\\bestb\\Desktop\\Dapps\\nexty\\nexty-governance\\contracts\\governance\\NextyManager.sol",
  "compiler": {
    "name": "solc",
    "version": "0.4.24+commit.e67f0147.Emscripten.clang"
  },
  "schemaVersion": "2.0.1",
  "updatedAt": "2018-10-17T04:58:17.858Z"
}