{
  "contractName": "NextyManager",
  "abi": [
    {
      "constant": true,
      "inputs": [
        {
          "name": "addr",
          "type": "address"
        }
      ],
      "name": "inBlacklist",
      "outputs": [
        {
          "name": "",
          "type": "bool"
        }
      ],
      "payable": false,
      "stateMutability": "view",
      "type": "function"
    },
    {
      "constant": true,
      "inputs": [
        {
          "name": "",
          "type": "address"
        }
      ],
      "name": "isCoinbase",
      "outputs": [
        {
          "name": "",
          "type": "bool"
        }
      ],
      "payable": false,
      "stateMutability": "view",
      "type": "function"
    },
    {
      "constant": true,
      "inputs": [
        {
          "name": "",
          "type": "uint256"
        }
      ],
      "name": "coinbases",
      "outputs": [
        {
          "name": "",
          "type": "address"
        }
      ],
      "payable": false,
      "stateMutability": "view",
      "type": "function"
    },
    {
      "constant": true,
      "inputs": [
        {
          "name": "",
          "type": "address"
        }
      ],
      "name": "getSealer",
      "outputs": [
        {
          "name": "",
          "type": "address"
        }
      ],
      "payable": false,
      "stateMutability": "view",
      "type": "function"
    },
    {
      "constant": false,
      "inputs": [
        {
          "name": "addrs",
          "type": "address[]"
        }
      ],
      "name": "removeAddressesFromBlacklist",
      "outputs": [
        {
          "name": "success",
          "type": "bool"
        }
      ],
      "payable": false,
      "stateMutability": "nonpayable",
      "type": "function"
    },
    {
      "constant": true,
      "inputs": [],
      "name": "getBlacklist",
      "outputs": [
        {
          "name": "",
          "type": "address[]"
        }
      ],
      "payable": false,
      "stateMutability": "view",
      "type": "function"
    },
    {
      "constant": false,
      "inputs": [
        {
          "name": "addr",
          "type": "address"
        }
      ],
      "name": "removeAddressFromBlacklist",
      "outputs": [
        {
          "name": "success",
          "type": "bool"
        }
      ],
      "payable": false,
      "stateMutability": "nonpayable",
      "type": "function"
    },
    {
      "constant": true,
      "inputs": [],
      "name": "voteAddress",
      "outputs": [
        {
          "name": "",
          "type": "address"
        }
      ],
      "payable": false,
      "stateMutability": "view",
      "type": "function"
    },
    {
      "constant": true,
      "inputs": [],
      "name": "owner",
      "outputs": [
        {
          "name": "",
          "type": "address"
        }
      ],
      "payable": false,
      "stateMutability": "view",
      "type": "function"
    },
    {
      "constant": true,
      "inputs": [],
      "name": "MIN_BLOCKS_DISTANCE",
      "outputs": [
        {
          "name": "",
          "type": "uint256"
        }
      ],
      "payable": false,
      "stateMutability": "view",
      "type": "function"
    },
    {
      "constant": true,
      "inputs": [],
      "name": "ntfAddress",
      "outputs": [
        {
          "name": "",
          "type": "address"
        }
      ],
      "payable": false,
      "stateMutability": "view",
      "type": "function"
    },
    {
      "constant": true,
      "inputs": [
        {
          "name": "",
          "type": "address"
        }
      ],
      "name": "sealers",
      "outputs": [
        {
          "name": "status",
          "type": "uint8"
        },
        {
          "name": "balance",
          "type": "uint256"
        },
        {
          "name": "coinbase",
          "type": "address"
        },
        {
          "name": "leavedBlocknumber",
          "type": "uint256"
        }
      ],
      "payable": false,
      "stateMutability": "view",
      "type": "function"
    },
    {
      "constant": true,
      "inputs": [],
      "name": "MIN_NTF_AMOUNT",
      "outputs": [
        {
          "name": "",
          "type": "uint256"
        }
      ],
      "payable": false,
      "stateMutability": "view",
      "type": "function"
    },
    {
      "constant": true,
      "inputs": [
        {
          "name": "id",
          "type": "uint256"
        }
      ],
      "name": "getBlacklistedById",
      "outputs": [
        {
          "name": "",
          "type": "address"
        }
      ],
      "payable": false,
      "stateMutability": "view",
      "type": "function"
    },
    {
      "constant": true,
      "inputs": [],
      "name": "getBlacklistLength",
      "outputs": [
        {
          "name": "",
          "type": "uint256"
        }
      ],
      "payable": false,
      "stateMutability": "view",
      "type": "function"
    },
    {
      "constant": true,
      "inputs": [
        {
          "name": "contractName",
          "type": "string"
        },
        {
          "name": "migrationId",
          "type": "string"
        }
      ],
      "name": "isMigrated",
      "outputs": [
        {
          "name": "",
          "type": "bool"
        }
      ],
      "payable": false,
      "stateMutability": "view",
      "type": "function"
    },
    {
      "constant": false,
      "inputs": [
        {
          "name": "_sender",
          "type": "address"
        }
      ],
      "name": "initialize",
      "outputs": [],
      "payable": false,
      "stateMutability": "nonpayable",
      "type": "function"
    },
    {
      "constant": false,
      "inputs": [
        {
          "name": "addrs",
          "type": "address[]"
        }
      ],
      "name": "addAddressesToBlacklist",
      "outputs": [
        {
          "name": "success",
          "type": "bool"
        }
      ],
      "payable": false,
      "stateMutability": "nonpayable",
      "type": "function"
    },
    {
      "constant": false,
      "inputs": [
        {
          "name": "addr",
          "type": "address"
        }
      ],
      "name": "addAddressToBlacklist",
      "outputs": [
        {
          "name": "success",
          "type": "bool"
        }
      ],
      "payable": false,
      "stateMutability": "nonpayable",
      "type": "function"
    },
    {
      "constant": false,
      "inputs": [
        {
          "name": "newOwner",
          "type": "address"
        }
      ],
      "name": "transferOwnership",
      "outputs": [],
      "payable": false,
      "stateMutability": "nonpayable",
      "type": "function"
    },
    {
      "constant": true,
      "inputs": [
        {
          "name": "",
          "type": "address"
        }
      ],
      "name": "blacklist",
      "outputs": [
        {
          "name": "",
          "type": "bool"
        }
      ],
      "payable": false,
      "stateMutability": "view",
      "type": "function"
    },
    {
      "inputs": [
        {
          "name": "_ntfAddress",
          "type": "address"
        },
        {
          "name": "_voteAddress",
          "type": "address"
        }
      ],
      "payable": false,
      "stateMutability": "nonpayable",
      "type": "constructor"
    },
    {
      "anonymous": false,
      "inputs": [
        {
          "indexed": false,
          "name": "_sealer",
          "type": "address"
        },
        {
          "indexed": false,
          "name": "_tokens",
          "type": "uint256"
        }
      ],
      "name": "Deposited",
      "type": "event"
    },
    {
      "anonymous": false,
      "inputs": [
        {
          "indexed": false,
          "name": "_sealer",
          "type": "address"
        },
        {
          "indexed": false,
          "name": "_coinbase",
          "type": "address"
        }
      ],
      "name": "Joined",
      "type": "event"
    },
    {
      "anonymous": false,
      "inputs": [
        {
          "indexed": false,
          "name": "_sealer",
          "type": "address"
        },
        {
          "indexed": false,
          "name": "_coinbase",
          "type": "address"
        }
      ],
      "name": "Leaved",
      "type": "event"
    },
    {
      "anonymous": false,
      "inputs": [
        {
          "indexed": false,
          "name": "_sealer",
          "type": "address"
        },
        {
          "indexed": false,
          "name": "_tokens",
          "type": "uint256"
        }
      ],
      "name": "Withdrawn",
      "type": "event"
    },
    {
      "anonymous": false,
      "inputs": [
        {
          "indexed": false,
          "name": "_sealer",
          "type": "address"
        }
      ],
      "name": "Banned",
      "type": "event"
    },
    {
      "anonymous": false,
      "inputs": [
        {
          "indexed": false,
          "name": "_sealer",
          "type": "address"
        }
      ],
      "name": "Unbanned",
      "type": "event"
    },
    {
      "anonymous": false,
      "inputs": [
        {
          "indexed": false,
          "name": "addr",
          "type": "address"
        }
      ],
      "name": "BlacklistedAddressAdded",
      "type": "event"
    },
    {
      "anonymous": false,
      "inputs": [
        {
          "indexed": false,
          "name": "addr",
          "type": "address"
        }
      ],
      "name": "BlacklistedAddressRemoved",
      "type": "event"
    },
    {
      "anonymous": false,
      "inputs": [
        {
          "indexed": true,
          "name": "previousOwner",
          "type": "address"
        },
        {
          "indexed": true,
          "name": "newOwner",
          "type": "address"
        }
      ],
      "name": "OwnershipTransferred",
      "type": "event"
    },
    {
      "anonymous": false,
      "inputs": [
        {
          "indexed": false,
          "name": "contractName",
          "type": "string"
        },
        {
          "indexed": false,
          "name": "migrationId",
          "type": "string"
        }
      ],
      "name": "Migrated",
      "type": "event"
    },
    {
      "constant": false,
      "inputs": [
        {
          "name": "_to",
          "type": "address"
        }
      ],
      "name": "moveVoteContract",
      "outputs": [],
      "payable": false,
      "stateMutability": "nonpayable",
      "type": "function"
    },
    {
      "constant": true,
      "inputs": [
        {
          "name": "_address",
          "type": "address"
        }
      ],
      "name": "isBanned",
      "outputs": [
        {
          "name": "",
          "type": "bool"
        }
      ],
      "payable": false,
      "stateMutability": "view",
      "type": "function"
    },
    {
      "constant": false,
      "inputs": [
        {
          "name": "_address",
          "type": "address"
        }
      ],
      "name": "sealerLock",
      "outputs": [],
      "payable": false,
      "stateMutability": "nonpayable",
      "type": "function"
    },
    {
      "constant": false,
      "inputs": [
        {
          "name": "_address",
          "type": "address"
        }
      ],
      "name": "sealerUnlock",
      "outputs": [],
      "payable": false,
      "stateMutability": "nonpayable",
      "type": "function"
    },
    {
      "constant": false,
      "inputs": [
        {
          "name": "tokens",
          "type": "uint256"
        }
      ],
      "name": "deposit",
      "outputs": [
        {
          "name": "",
          "type": "bool"
        }
      ],
      "payable": false,
      "stateMutability": "nonpayable",
      "type": "function"
    },
    {
      "constant": false,
      "inputs": [
        {
          "name": "_coinbase",
          "type": "address"
        }
      ],
      "name": "join",
      "outputs": [
        {
          "name": "",
          "type": "bool"
        }
      ],
      "payable": false,
      "stateMutability": "nonpayable",
      "type": "function"
    },
    {
      "constant": false,
      "inputs": [],
      "name": "leave",
      "outputs": [
        {
          "name": "",
          "type": "bool"
        }
      ],
      "payable": false,
      "stateMutability": "nonpayable",
      "type": "function"
    },
    {
      "constant": false,
      "inputs": [],
      "name": "withdraw",
      "outputs": [
        {
          "name": "",
          "type": "bool"
        }
      ],
      "payable": false,
      "stateMutability": "nonpayable",
      "type": "function"
    }
  ],
  "bytecode": "0x608060405234801561001057600080fd5b506040516040806137c6833981018060405281019080805190602001909291908051906020019092919050505081600460006101000a81548173ffffffffffffffffffffffffffffffffffffffff021916908373ffffffffffffffffffffffffffffffffffffffff16021790555080600560006101000a81548173ffffffffffffffffffffffffffffffffffffffff021916908373ffffffffffffffffffffffffffffffffffffffff16021790555050506136f6806100d06000396000f300608060405260043610610174576000357c0100000000000000000000000000000000000000000000000000000000900463ffffffff16806286786e146101795780630d8754ac146101d45780630ebf0de71461022f5780631c1938de1461029c5780632041d33f146102df57806328ffe6c81461036257806332258794146103bd578063338d6c301461043b57806335e82f3a146104a75780633ccfd60b146105025780633d6dc928146105315780638da5cb5b14610588578063972dce57146105df57806397f735d5146106225780639910ea331461067d578063a8394d07146106a8578063aa61aef3146106ff578063b22ff454146107a5578063b6b55f25146107d0578063bb84be3914610815578063bd889ce414610882578063c0bac1a8146108ad578063c4d66de814610974578063ca73419e146109b7578063d66d9e1914610a35578063da7af7a414610a64578063f2c816ae14610aa7578063f2fde38b14610b02578063f9f92be414610b45575b600080fd5b34801561018557600080fd5b506101ba600480360381019080803573ffffffffffffffffffffffffffffffffffffffff169060200190929190505050610ba0565b604051808215151515815260200191505060405180910390f35b3480156101e057600080fd5b50610215600480360381019080803573ffffffffffffffffffffffffffffffffffffffff169060200190929190505050610bf6565b604051808215151515815260200191505060405180910390f35b34801561023b57600080fd5b5061025a60048036038101908080359060200190929190505050610c16565b604051808273ffffffffffffffffffffffffffffffffffffffff1673ffffffffffffffffffffffffffffffffffffffff16815260200191505060405180910390f35b3480156102a857600080fd5b506102dd600480360381019080803573ffffffffffffffffffffffffffffffffffffffff169060200190929190505050610c54565b005b3480156102eb57600080fd5b50610320600480360381019080803573ffffffffffffffffffffffffffffffffffffffff169060200190929190505050610de3565b604051808273ffffffffffffffffffffffffffffffffffffffff1673ffffffffffffffffffffffffffffffffffffffff16815260200191505060405180910390f35b34801561036e57600080fd5b506103a3600480360381019080803573ffffffffffffffffffffffffffffffffffffffff169060200190929190505050610e16565b604051808215151515815260200191505060405180910390f35b3480156103c957600080fd5b5061042160048036038101908080359060200190820180359060200190808060200260200160405190810160405280939291908181526020018383602002808284378201915050505050509192919290505050611611565b604051808215151515815260200191505060405180910390f35b34801561044757600080fd5b506104506116bb565b6040518080602001828103825283818151815260200191508051906020019060200280838360005b83811015610493578082015181840152602081019050610478565b505050509050019250505060405180910390f35b3480156104b357600080fd5b506104e8600480360381019080803573ffffffffffffffffffffffffffffffffffffffff169060200190929190505050611749565b604051808215151515815260200191505060405180910390f35b34801561050e57600080fd5b50610517611a00565b604051808215151515815260200191505060405180910390f35b34801561053d57600080fd5b50610546611db2565b604051808273ffffffffffffffffffffffffffffffffffffffff1673ffffffffffffffffffffffffffffffffffffffff16815260200191505060405180910390f35b34801561059457600080fd5b5061059d611dd8565b604051808273ffffffffffffffffffffffffffffffffffffffff1673ffffffffffffffffffffffffffffffffffffffff16815260200191505060405180910390f35b3480156105eb57600080fd5b50610620600480360381019080803573ffffffffffffffffffffffffffffffffffffffff169060200190929190505050611dfe565b005b34801561062e57600080fd5b50610663600480360381019080803573ffffffffffffffffffffffffffffffffffffffff169060200190929190505050612129565b604051808215151515815260200191505060405180910390f35b34801561068957600080fd5b5061069261219a565b6040518082815260200191505060405180910390f35b3480156106b457600080fd5b506106bd61219f565b604051808273ffffffffffffffffffffffffffffffffffffffff1673ffffffffffffffffffffffffffffffffffffffff16815260200191505060405180910390f35b34801561070b57600080fd5b50610740600480360381019080803573ffffffffffffffffffffffffffffffffffffffff1690602001909291905050506121c5565b6040518085600481111561075057fe5b60ff1681526020018481526020018373ffffffffffffffffffffffffffffffffffffffff1673ffffffffffffffffffffffffffffffffffffffff16815260200182815260200194505050505060405180910390f35b3480156107b157600080fd5b506107ba612222565b6040518082815260200191505060405180910390f35b3480156107dc57600080fd5b506107fb60048036038101908080359060200190929190505050612227565b604051808215151515815260200191505060405180910390f35b34801561082157600080fd5b506108406004803603810190808035906020019092919050505061246d565b604051808273ffffffffffffffffffffffffffffffffffffffff1673ffffffffffffffffffffffffffffffffffffffff16815260200191505060405180910390f35b34801561088e57600080fd5b506108976124b0565b6040518082815260200191505060405180910390f35b3480156108b957600080fd5b5061095a600480360381019080803590602001908201803590602001908080601f0160208091040260200160405190810160405280939291908181526020018383808284378201915050505050509192919290803590602001908201803590602001908080601f01602080910402602001604051908101604052809392919081815260200183838082843782019150505050505091929192905050506124bd565b604051808215151515815260200191505060405180910390f35b34801561098057600080fd5b506109b5600480360381019080803573ffffffffffffffffffffffffffffffffffffffff1690602001909291905050506125a8565b005b3480156109c357600080fd5b50610a1b6004803603810190808035906020019082018035906020019080806020026020016040519081016040528093929190818152602001838360200280828437820191505050505050919291929050505061282e565b604051808215151515815260200191505060405180910390f35b348015610a4157600080fd5b50610a4a6128d8565b604051808215151515815260200191505060405180910390f35b348015610a7057600080fd5b50610aa5600480360381019080803573ffffffffffffffffffffffffffffffffffffffff169060200190929190505050612d31565b005b348015610ab357600080fd5b50610ae8600480360381019080803573ffffffffffffffffffffffffffffffffffffffff169060200190929190505050612dd1565b604051808215151515815260200191505060405180910390f35b348015610b0e57600080fd5b50610b43600480360381019080803573ffffffffffffffffffffffffffffffffffffffff169060200190929190505050612fad565b005b348015610b5157600080fd5b50610b86600480360381019080803573ffffffffffffffffffffffffffffffffffffffff169060200190929190505050613105565b604051808215151515815260200191505060405180910390f35b6000600260008373ffffffffffffffffffffffffffffffffffffffff1673ffffffffffffffffffffffffffffffffffffffff16815260200190815260200160002060009054906101000a900460ff169050919050565b60086020528060005260406000206000915054906101000a900460ff1681565b600781815481101515610c2557fe5b906000526020600020016000915054906101000a900473ffffffffffffffffffffffffffffffffffffffff1681565b600560009054906101000a900473ffffffffffffffffffffffffffffffffffffffff1673ffffffffffffffffffffffffffffffffffffffff163373ffffffffffffffffffffffffffffffffffffffff16141515610d19576040517f08c379a00000000000000000000000000000000000000000000000000000000081526004018080602001828103825260148152602001807f6f6e6c7920766f74696e6720636f6e747261637400000000000000000000000081525060200191505060405180910390fd5b6002600660008373ffffffffffffffffffffffffffffffffffffffff1673ffffffffffffffffffffffffffffffffffffffff16815260200190815260200160002060000160006101000a81548160ff02191690836004811115610d7857fe5b02179055507f2ab91b53354938415bb6962c4322231cd4cb2c84930f1a4b9abbedc2fe8abe7281604051808273ffffffffffffffffffffffffffffffffffffffff1673ffffffffffffffffffffffffffffffffffffffff16815260200191505060405180910390a150565b60096020528060005260406000206000915054906101000a900473ffffffffffffffffffffffffffffffffffffffff1681565b6000600480811115610e2457fe5b600660003373ffffffffffffffffffffffffffffffffffffffff1673ffffffffffffffffffffffffffffffffffffffff16815260200190815260200160002060000160009054906101000a900460ff166004811115610e7f57fe5b14151515610ef5576040517f08c379a00000000000000000000000000000000000000000000000000000000081526004018080602001828103825260078152602001807f62616e6e6564200000000000000000000000000000000000000000000000000081525060200191505060405180910390fd5b60016004811115610f0257fe5b600660003373ffffffffffffffffffffffffffffffffffffffff1673ffffffffffffffffffffffffffffffffffffffff16815260200190815260200160002060000160009054906101000a900460ff166004811115610f5d57fe5b14151515610fd3576040517f08c379a000000000000000000000000000000000000000000000000000000000815260040180806020018281038252600f8152602001807f616c7265616479206a6f696e656420000000000000000000000000000000000081525060200191505060405180910390fd5b6002600660003373ffffffffffffffffffffffffffffffffffffffff1673ffffffffffffffffffffffffffffffffffffffff168152602001908152602001600020600101541015151561108e576040517f08c379a000000000000000000000000000000000000000000000000000000000815260040180806020018281038252600e8152602001807f6e6f7420656e6f756768206e746600000000000000000000000000000000000081525060200191505060405180910390fd5b81600860008273ffffffffffffffffffffffffffffffffffffffff1673ffffffffffffffffffffffffffffffffffffffff16815260200190815260200160002060009054906101000a900460ff16151515611151576040517f08c379a00000000000000000000000000000000000000000000000000000000081526004018080602001828103825260158152602001807f636f696e6261736520616c72656164792075736564000000000000000000000081525060200191505060405180910390fd5b600073ffffffffffffffffffffffffffffffffffffffff168173ffffffffffffffffffffffffffffffffffffffff16141515156111f6576040517f08c379a000000000000000000000000000000000000000000000000000000000815260040180806020018281038252600d8152602001807f636f696e62617365207a65726f0000000000000000000000000000000000000081525060200191505060405180910390fd5b3073ffffffffffffffffffffffffffffffffffffffff168173ffffffffffffffffffffffffffffffffffffffff161415151561129a576040517f08c379a00000000000000000000000000000000000000000000000000000000081526004018080602001828103825260178152602001807f73616d6520636f6e74726163742773206164647265737300000000000000000081525060200191505060405180910390fd5b600160009054906101000a900473ffffffffffffffffffffffffffffffffffffffff1673ffffffffffffffffffffffffffffffffffffffff168173ffffffffffffffffffffffffffffffffffffffff1614151515611360576040517f08c379a00000000000000000000000000000000000000000000000000000000081526004018080602001828103825260148152602001807f73616d65206f776e65722773206164647265737300000000000000000000000081525060200191505060405180910390fd5b3373ffffffffffffffffffffffffffffffffffffffff168173ffffffffffffffffffffffffffffffffffffffff1614151515611404576040517f08c379a00000000000000000000000000000000000000000000000000000000081526004018080602001828103825260158152602001807f73616d652073656e64657227732061646472657373000000000000000000000081525060200191505060405180910390fd5b82600660003373ffffffffffffffffffffffffffffffffffffffff1673ffffffffffffffffffffffffffffffffffffffff16815260200190815260200160002060020160006101000a81548173ffffffffffffffffffffffffffffffffffffffff021916908373ffffffffffffffffffffffffffffffffffffffff1602179055506001600660003373ffffffffffffffffffffffffffffffffffffffff1673ffffffffffffffffffffffffffffffffffffffff16815260200190815260200160002060000160006101000a81548160ff021916908360048111156114e457fe5b021790555033600960008573ffffffffffffffffffffffffffffffffffffffff1673ffffffffffffffffffffffffffffffffffffffff16815260200190815260200160002060006101000a81548173ffffffffffffffffffffffffffffffffffffffff021916908373ffffffffffffffffffffffffffffffffffffffff16021790555061157083613125565b7f7702dccda75540ad1dca8d5276c048f4a5c0e4203f6da4be214bfb1901b203ea3384604051808373ffffffffffffffffffffffffffffffffffffffff1673ffffffffffffffffffffffffffffffffffffffff1681526020018273ffffffffffffffffffffffffffffffffffffffff1673ffffffffffffffffffffffffffffffffffffffff1681526020019250505060405180910390a16001915050919050565b600080600160009054906101000a900473ffffffffffffffffffffffffffffffffffffffff1673ffffffffffffffffffffffffffffffffffffffff163373ffffffffffffffffffffffffffffffffffffffff1614151561167057600080fd5b600090505b82518110156116b55761169e838281518110151561168f57fe5b90602001906020020151611749565b156116a857600191505b8080600101915050611675565b50919050565b6060600380548060200260200160405190810160405280929190818152602001828054801561173f57602002820191906000526020600020905b8160009054906101000a900473ffffffffffffffffffffffffffffffffffffffff1673ffffffffffffffffffffffffffffffffffffffff16815260200190600101908083116116f5575b5050505050905090565b600080600160009054906101000a900473ffffffffffffffffffffffffffffffffffffffff1673ffffffffffffffffffffffffffffffffffffffff163373ffffffffffffffffffffffffffffffffffffffff161415156117a857600080fd5b600260008473ffffffffffffffffffffffffffffffffffffffff1673ffffffffffffffffffffffffffffffffffffffff16815260200190815260200160002060009054906101000a900460ff16156119fa576000600260008573ffffffffffffffffffffffffffffffffffffffff1673ffffffffffffffffffffffffffffffffffffffff16815260200190815260200160002060006101000a81548160ff021916908315150217905550600090505b6003805490508110156119925760038181548110151561187357fe5b9060005260206000200160009054906101000a900473ffffffffffffffffffffffffffffffffffffffff1673ffffffffffffffffffffffffffffffffffffffff168373ffffffffffffffffffffffffffffffffffffffff1614156119855760036001600380549050038154811015156118e857fe5b9060005260206000200160009054906101000a900473ffffffffffffffffffffffffffffffffffffffff1660038281548110151561192257fe5b9060005260206000200160006101000a81548173ffffffffffffffffffffffffffffffffffffffff021916908373ffffffffffffffffffffffffffffffffffffffff160217905550600380548091906001900361197f9190613679565b50611992565b8080600101915050611857565b7fb9b02d6ef3069c468ac99865bad0d84ec0cf34671cb26053e5e47d415ae1756483604051808273ffffffffffffffffffffffffffffffffffffffff1673ffffffffffffffffffffffffffffffffffffffff16815260200191505060405180910390a1600191505b50919050565b600080600480811115611a0f57fe5b600660003373ffffffffffffffffffffffffffffffffffffffff1673ffffffffffffffffffffffffffffffffffffffff16815260200190815260200160002060000160009054906101000a900460ff166004811115611a6a57fe5b14151515611ae0576040517f08c379a00000000000000000000000000000000000000000000000000000000081526004018080602001828103825260078152602001807f62616e6e6564200000000000000000000000000000000000000000000000000081525060200191505060405180910390fd5b60008060016004811115611af057fe5b600660003373ffffffffffffffffffffffffffffffffffffffff1673ffffffffffffffffffffffffffffffffffffffff16815260200190815260200160002060000160009054906101000a900460ff166004811115611b4b57fe5b14151515611bc1576040517f08c379a00000000000000000000000000000000000000000000000000000000081526004018080602001828103825260188152602001807f4e5446206c6f636b6564207768696c65207365616c696e67000000000000000081525060200191505060405180910390fd5b439150611c19600660003373ffffffffffffffffffffffffffffffffffffffff1673ffffffffffffffffffffffffffffffffffffffff16815260200190815260200160002060030154836131e690919063ffffffff16565b905060648110151515611c94576040517f08c379a000000000000000000000000000000000000000000000000000000000815260040180806020018281038252601e8152602001807f4e5446207374696c6c206c6f636b6564206166746572206c656176696e67000081525060200191505060405180910390fd5b600660003373ffffffffffffffffffffffffffffffffffffffff1673ffffffffffffffffffffffffffffffffffffffff1681526020019081526020016000206001015492506003600660003373ffffffffffffffffffffffffffffffffffffffff1673ffffffffffffffffffffffffffffffffffffffff16815260200190815260200160002060000160006101000a81548160ff02191690836004811115611d3857fe5b02179055507f7084f5476618d8e60b11ef0d7d3f06914655adb8793e28ff7f018d4c76d505d53384604051808373ffffffffffffffffffffffffffffffffffffffff1673ffffffffffffffffffffffffffffffffffffffff1681526020018281526020019250505060405180910390a16001935050505090565b600560009054906101000a900473ffffffffffffffffffffffffffffffffffffffff1681565b600160009054906101000a900473ffffffffffffffffffffffffffffffffffffffff1681565b6000600560009054906101000a900473ffffffffffffffffffffffffffffffffffffffff1673ffffffffffffffffffffffffffffffffffffffff163373ffffffffffffffffffffffffffffffffffffffff16141515611ec5576040517f08c379a00000000000000000000000000000000000000000000000000000000081526004018080602001828103825260148152602001807f6f6e6c7920766f74696e6720636f6e747261637400000000000000000000000081525060200191505060405180910390fd5b600660003373ffffffffffffffffffffffffffffffffffffffff1673ffffffffffffffffffffffffffffffffffffffff16815260200190815260200160002060020160009054906101000a900473ffffffffffffffffffffffffffffffffffffffff1690506000600660003373ffffffffffffffffffffffffffffffffffffffff1673ffffffffffffffffffffffffffffffffffffffff16815260200190815260200160002060020160006101000a81548173ffffffffffffffffffffffffffffffffffffffff021916908373ffffffffffffffffffffffffffffffffffffffff1602179055506004600660003373ffffffffffffffffffffffffffffffffffffffff1673ffffffffffffffffffffffffffffffffffffffff16815260200190815260200160002060000160006101000a81548160ff0219169083600481111561200b57fe5b021790555043600660003373ffffffffffffffffffffffffffffffffffffffff1673ffffffffffffffffffffffffffffffffffffffff16815260200190815260200160002060030181905550600960008273ffffffffffffffffffffffffffffffffffffffff1673ffffffffffffffffffffffffffffffffffffffff16815260200190815260200160002060006101000a81549073ffffffffffffffffffffffffffffffffffffffff02191690556120c2816131ff565b7f30d1df1214d91553408ca5384ce29e10e5866af8423c628be22860e41fb8100582604051808273ffffffffffffffffffffffffffffffffffffffff1673ffffffffffffffffffffffffffffffffffffffff16815260200191505060405180910390a15050565b600060048081111561213757fe5b600660008473ffffffffffffffffffffffffffffffffffffffff1673ffffffffffffffffffffffffffffffffffffffff16815260200190815260200160002060000160009054906101000a900460ff16600481111561219257fe5b149050919050565b606481565b600460009054906101000a900473ffffffffffffffffffffffffffffffffffffffff1681565b60066020528060005260406000206000915090508060000160009054906101000a900460ff16908060010154908060020160009054906101000a900473ffffffffffffffffffffffffffffffffffffffff16908060030154905084565b600281565b6000600460009054906101000a900473ffffffffffffffffffffffffffffffffffffffff1673ffffffffffffffffffffffffffffffffffffffff166323b872dd3330856040518463ffffffff167c0100000000000000000000000000000000000000000000000000000000028152600401808473ffffffffffffffffffffffffffffffffffffffff1673ffffffffffffffffffffffffffffffffffffffff1681526020018373ffffffffffffffffffffffffffffffffffffffff1673ffffffffffffffffffffffffffffffffffffffff1681526020018281526020019350505050602060405180830381600087803b15801561232257600080fd5b505af1158015612336573d6000803e3d6000fd5b505050506040513d602081101561234c57600080fd5b8101908080519060200190929190505050506123b382600660003373ffffffffffffffffffffffffffffffffffffffff1673ffffffffffffffffffffffffffffffffffffffff1681526020019081526020016000206001015461339d90919063ffffffff16565b600660003373ffffffffffffffffffffffffffffffffffffffff1673ffffffffffffffffffffffffffffffffffffffff168152602001908152602001600020600101819055507f2da466a7b24304f47e87fa2e1e5a81b9831ce54fec19055ce277ca2f39ba42c43383604051808373ffffffffffffffffffffffffffffffffffffffff1673ffffffffffffffffffffffffffffffffffffffff1681526020018281526020019250505060405180910390a160019050919050565b600060038281548110151561247e57fe5b9060005260206000200160009054906101000a900473ffffffffffffffffffffffffffffffffffffffff169050919050565b6000600380549050905090565b600080836040518082805190602001908083835b6020831015156124f657805182526020820191506020810190506020830392506124d1565b6001836020036101000a0380198251168184511680821785525050505050509050019150509081526020016040518091039020826040518082805190602001908083835b60208310151561255f578051825260208201915060208101905060208303925061253a565b6001836020036101000a038019825116818451168082178552505050505050905001915050908152602001604051809103902060009054906101000a900460ff16905092915050565b6040805190810160405280600981526020017f426c61636b6c69737400000000000000000000000000000000000000000000008152506040805190810160405280600381526020017f302e31000000000000000000000000000000000000000000000000000000000081525061261e82826124bd565b15151561262a57600080fd5b612633836133bb565b7fdd117a11c22118c9dee4b5a67ce578bc44529dce21ee0ccc439588fbb9fb4ea38282604051808060200180602001838103835285818151815260200191508051906020019080838360005b8381101561269a57808201518184015260208101905061267f565b50505050905090810190601f1680156126c75780820380516001836020036101000a031916815260200191505b50838103825284818151815260200191508051906020019080838360005b838110156127005780820151818401526020810190506126e5565b50505050905090810190601f16801561272d5780820380516001836020036101000a031916815260200191505b5094505050505060405180910390a160016000836040518082805190602001908083835b6020831015156127765780518252602082019150602081019050602083039250612751565b6001836020036101000a0380198251168184511680821785525050505050509050019150509081526020016040518091039020826040518082805190602001908083835b6020831015156127df57805182526020820191506020810190506020830392506127ba565b6001836020036101000a038019825116818451168082178552505050505050905001915050908152602001604051809103902060006101000a81548160ff021916908315150217905550505050565b600080600160009054906101000a900473ffffffffffffffffffffffffffffffffffffffff1673ffffffffffffffffffffffffffffffffffffffff163373ffffffffffffffffffffffffffffffffffffffff1614151561288d57600080fd5b600090505b82518110156128d2576128bb83828151811015156128ac57fe5b90602001906020020151612dd1565b156128c557600191505b8080600101915050612892565b50919050565b6000806004808111156128e757fe5b600660003373ffffffffffffffffffffffffffffffffffffffff1673ffffffffffffffffffffffffffffffffffffffff16815260200190815260200160002060000160009054906101000a900460ff16600481111561294257fe5b141515156129b8576040517f08c379a00000000000000000000000000000000000000000000000000000000081526004018080602001828103825260078152602001807f62616e6e6564200000000000000000000000000000000000000000000000000081525060200191505060405180910390fd5b600160048111156129c557fe5b600660003373ffffffffffffffffffffffffffffffffffffffff1673ffffffffffffffffffffffffffffffffffffffff16815260200190815260200160002060000160009054906101000a900460ff166004811115612a2057fe5b141515612a95576040517f08c379a000000000000000000000000000000000000000000000000000000000815260040180806020018281038252600b8152602001807f6e6f74206a6f696e65642000000000000000000000000000000000000000000081525060200191505060405180910390fd5b600660003373ffffffffffffffffffffffffffffffffffffffff1673ffffffffffffffffffffffffffffffffffffffff16815260200190815260200160002060020160009054906101000a900473ffffffffffffffffffffffffffffffffffffffff1690506000600660003373ffffffffffffffffffffffffffffffffffffffff1673ffffffffffffffffffffffffffffffffffffffff16815260200190815260200160002060020160006101000a81548173ffffffffffffffffffffffffffffffffffffffff021916908373ffffffffffffffffffffffffffffffffffffffff1602179055506002600660003373ffffffffffffffffffffffffffffffffffffffff1673ffffffffffffffffffffffffffffffffffffffff16815260200190815260200160002060000160006101000a81548160ff02191690836004811115612bdb57fe5b021790555043600660003373ffffffffffffffffffffffffffffffffffffffff1673ffffffffffffffffffffffffffffffffffffffff16815260200190815260200160002060030181905550600960008273ffffffffffffffffffffffffffffffffffffffff1673ffffffffffffffffffffffffffffffffffffffff16815260200190815260200160002060006101000a81549073ffffffffffffffffffffffffffffffffffffffff0219169055612c92816131ff565b7f616295472efb31e58b9817ab281e88ed965c9e485f44b80fea306d71c7197f313382604051808373ffffffffffffffffffffffffffffffffffffffff1673ffffffffffffffffffffffffffffffffffffffff1681526020018273ffffffffffffffffffffffffffffffffffffffff1673ffffffffffffffffffffffffffffffffffffffff1681526020019250505060405180910390a1600191505090565b600160009054906101000a900473ffffffffffffffffffffffffffffffffffffffff1673ffffffffffffffffffffffffffffffffffffffff163373ffffffffffffffffffffffffffffffffffffffff16141515612d8d57600080fd5b80600560006101000a81548173ffffffffffffffffffffffffffffffffffffffff021916908373ffffffffffffffffffffffffffffffffffffffff16021790555050565b6000600160009054906101000a900473ffffffffffffffffffffffffffffffffffffffff1673ffffffffffffffffffffffffffffffffffffffff163373ffffffffffffffffffffffffffffffffffffffff16141515612e2f57600080fd5b600260008373ffffffffffffffffffffffffffffffffffffffff1673ffffffffffffffffffffffffffffffffffffffff16815260200190815260200160002060009054906101000a900460ff161515612fa8576001600260008473ffffffffffffffffffffffffffffffffffffffff1673ffffffffffffffffffffffffffffffffffffffff16815260200190815260200160002060006101000a81548160ff02191690831515021790555060038290806001815401808255809150509060018203906000526020600020016000909192909190916101000a81548173ffffffffffffffffffffffffffffffffffffffff021916908373ffffffffffffffffffffffffffffffffffffffff160217905550507fee71faa2d1e96ac74ee4023d6ffa8abfa43b7648f51e3dbd8ec561823e9df13282604051808273ffffffffffffffffffffffffffffffffffffffff1673ffffffffffffffffffffffffffffffffffffffff16815260200191505060405180910390a1600190505b919050565b600160009054906101000a900473ffffffffffffffffffffffffffffffffffffffff1673ffffffffffffffffffffffffffffffffffffffff163373ffffffffffffffffffffffffffffffffffffffff1614151561300957600080fd5b600073ffffffffffffffffffffffffffffffffffffffff168173ffffffffffffffffffffffffffffffffffffffff161415151561304557600080fd5b8073ffffffffffffffffffffffffffffffffffffffff16600160009054906101000a900473ffffffffffffffffffffffffffffffffffffffff1673ffffffffffffffffffffffffffffffffffffffff167f8be0079c531659141344cd1fd0a4f28419497f9722a3daafe3b4186f6b6457e060405160405180910390a380600160006101000a81548173ffffffffffffffffffffffffffffffffffffffff021916908373ffffffffffffffffffffffffffffffffffffffff16021790555050565b60026020528060005260406000206000915054906101000a900460ff1681565b6001600860008373ffffffffffffffffffffffffffffffffffffffff1673ffffffffffffffffffffffffffffffffffffffff16815260200190815260200160002060006101000a81548160ff02191690831515021790555060078190806001815401808255809150509060018203906000526020600020016000909192909190916101000a81548173ffffffffffffffffffffffffffffffffffffffff021916908373ffffffffffffffffffffffffffffffffffffffff1602179055505050565b60008282111515156131f457fe5b818303905092915050565b600080600860008473ffffffffffffffffffffffffffffffffffffffff1673ffffffffffffffffffffffffffffffffffffffff16815260200190815260200160002060006101000a81548160ff021916908315150217905550600090505b6007805490508110156133985760078181548110151561327957fe5b9060005260206000200160009054906101000a900473ffffffffffffffffffffffffffffffffffffffff1673ffffffffffffffffffffffffffffffffffffffff168273ffffffffffffffffffffffffffffffffffffffff16141561338b5760076001600780549050038154811015156132ee57fe5b9060005260206000200160009054906101000a900473ffffffffffffffffffffffffffffffffffffffff1660078281548110151561332857fe5b9060005260206000200160006101000a81548173ffffffffffffffffffffffffffffffffffffffff021916908373ffffffffffffffffffffffffffffffffffffffff16021790555060078054809190600190036133859190613679565b50613399565b808060010191505061325d565b5b5050565b60008082840190508381101515156133b157fe5b8091505092915050565b6040805190810160405280600781526020017f4f776e61626c65000000000000000000000000000000000000000000000000008152506040805190810160405280600581526020017f312e392e3000000000000000000000000000000000000000000000000000000081525061343182826124bd565b15151561343d57600080fd5b82600160006101000a81548173ffffffffffffffffffffffffffffffffffffffff021916908373ffffffffffffffffffffffffffffffffffffffff1602179055507fdd117a11c22118c9dee4b5a67ce578bc44529dce21ee0ccc439588fbb9fb4ea38282604051808060200180602001838103835285818151815260200191508051906020019080838360005b838110156134e55780820151818401526020810190506134ca565b50505050905090810190601f1680156135125780820380516001836020036101000a031916815260200191505b50838103825284818151815260200191508051906020019080838360005b8381101561354b578082015181840152602081019050613530565b50505050905090810190601f1680156135785780820380516001836020036101000a031916815260200191505b5094505050505060405180910390a160016000836040518082805190602001908083835b6020831015156135c1578051825260208201915060208101905060208303925061359c565b6001836020036101000a0380198251168184511680821785525050505050509050019150509081526020016040518091039020826040518082805190602001908083835b60208310151561362a5780518252602082019150602081019050602083039250613605565b6001836020036101000a038019825116818451168082178552505050505050905001915050908152602001604051809103902060006101000a81548160ff021916908315150217905550505050565b8154818355818111156136a05781836000526020600020918201910161369f91906136a5565b5b505050565b6136c791905b808211156136c35760008160009055506001016136ab565b5090565b905600a165627a7a72305820c1eb37ce05ab581f3921ea9a0d0918244ee1b60708c3a791715a1f03ef5630190029",
  "source": "//solium-disable linebreak-style\r\npragma solidity ^0.4.24;\r\n\r\nimport \"zos-lib/contracts/migrations/Migratable.sol\";\r\n//import \"openzeppelin-zos/contracts/ownership/Ownable.sol\";\r\nimport \"./SafeMath.sol\";\r\nimport \"./Blacklist.sol\";\r\n\r\ncontract NTFToken {\r\n    //need approve first with DApp to call this function\r\n    function transferFrom(address _from, address _to, uint _tokens) public returns (bool success);\r\n    //function for withdraw the deposited ntf amount\r\n    function transfer(address _to, uint256 _amount) public returns(bool success);\r\n}\r\n\r\n/**\r\n * @title Nexty sealers management smart contract\r\n */\r\ncontract NextyManager is Migratable, Blacklist {\r\n    using SafeMath for uint256;\r\n\r\n    //minimum of deposited NTF to join\r\n    uint256 public constant MIN_NTF_AMOUNT = 2;\r\n    //minimum blocks number distance from last leaved to current chain blocknumber to withdrawable\r\n    uint256 public constant MIN_BLOCKS_DISTANCE = 100;\r\n\r\n    enum SealerStatus {\r\n        PENDING_ACTIVE,     //Sealer deposited enough NTFs into registration contract successfully.\r\n\r\n        ACTIVE,             //Sealer send request to become a sealer \r\n                            //and added into activation sealer set successfully\r\n\r\n        PENDING_WITHDRAW,   //Sealer send request to exit from activation sealer set successfully. \r\n                            //Sealer casted out of activation sealer set\r\n\r\n        WITHDRAWN,          //Sealer already withdrawn their deposit NTFs successfully. \r\n                            //They can only make withdrawal after withdrawal period.\r\n\r\n        PENALIZED           //Sealer marked as penalized node (update by consensus or voting result via dapp) \r\n                            //and cannot become active sealer and cannot withdraw balance neither.\r\n    }\r\n\r\n    struct Record {\r\n        SealerStatus status;\r\n        //ntf amount deposited\r\n        uint256 balance;\r\n        //sealer used address to seal blocks\r\n        address coinbase;\r\n        //blocknumber, that sealer leaved from sealers set. On first deposit got value of 0\r\n        uint256 leavedBlocknumber;\r\n    }\r\n\r\n    //ntf token contract, unit used to join Nexty sealers\r\n    address public ntfAddress;\r\n    //voting smart contract to lock(bann) or unlock(unbann) a sealer\r\n    address public voteAddress;\r\n\r\n    //get invester address of a coinbase\r\n    mapping(address => Record) public sealers;\r\n\r\n    //address[] public coinbases;\r\n    address[] public coinbases;\r\n    //check if address of a coinbase\r\n    mapping(address => bool) public isCoinbase;\r\n    //get sealer's address of a coinbase address\r\n    mapping(address => address) public getSealer;\r\n\r\n    event Deposited(address _sealer, uint _tokens);\r\n    event Joined(address _sealer, address _coinbase);\r\n    event Leaved(address _sealer, address _coinbase);\r\n    event Withdrawn(address _sealer, uint256 _tokens);\r\n    event Banned(address _sealer);\r\n    event Unbanned(address _sealer);\r\n\r\n    /**\r\n    * Check if address is a valid destination to transfer tokens to\r\n    * - must not be zero address\r\n    * - must not be the token address\r\n    * - must not be the owner's address\r\n    * - must not be the sender's address\r\n    */\r\n    modifier validCoinbase(address _coinbase) {\r\n        require(!isCoinbase[_coinbase], \"coinbase already used\");\r\n        require(_coinbase != address(0x0), \"coinbase zero\");\r\n        require(_coinbase != address(this), \"same contract's address\");\r\n        require(_coinbase != owner, \"same owner's address\");\r\n        require(_coinbase != msg.sender, \"same sender's address\");\r\n        _;\r\n    }\r\n\r\n    modifier notBanned() {\r\n        require(sealers[msg.sender].status != SealerStatus.PENALIZED, \"banned \");\r\n        _;\r\n    }\r\n\r\n    modifier joinable() {\r\n        require(sealers[msg.sender].status != SealerStatus.ACTIVE, \"already joined \");\r\n        require(sealers[msg.sender].balance >= MIN_NTF_AMOUNT, \"not enough ntf\");\r\n        _;\r\n    }\r\n\r\n    modifier leaveable() {\r\n        require(sealers[msg.sender].status == SealerStatus.ACTIVE, \"not joined \");\r\n        _;\r\n    }\r\n\r\n    modifier withdrawable() {\r\n        require(sealers[msg.sender].status != SealerStatus.ACTIVE, \"NTF locked while sealing\");\r\n        uint256 currentBlock = block.number;\r\n        //distance from current block to the block, that sealer leaved sealers set\r\n        uint256 distance = currentBlock.sub(sealers[msg.sender].leavedBlocknumber);\r\n        //withdrawl period\r\n        require(distance >= MIN_BLOCKS_DISTANCE, \"NTF still locked after leaving\");\r\n        _;\r\n    }\r\n\r\n    //only voting smart contract\r\n    modifier onlyVoteContract() {\r\n        require(msg.sender == voteAddress, \"only voting contract\");\r\n        _;\r\n    }\r\n\r\n    /**\r\n    *contract initialize\r\n    */\r\n    function NextyManager(address _ntfAddress, address _voteAddress) public {\r\n        ntfAddress = _ntfAddress;\r\n        voteAddress = _voteAddress;\r\n    }\r\n\r\n    //change voting smart contract address\r\n    function moveVoteContract(address _to) public onlyOwner {\r\n        voteAddress = _to;\r\n    }\r\n\r\n    //get bann status of a sealer's address\r\n    function isBanned(address _address) public view returns(bool) {\r\n        return (sealers[_address].status == SealerStatus.PENALIZED);\r\n    }\r\n\r\n    //voting contract's function\r\n    function sealerLock(address _address) external onlyVoteContract {\r\n        address _coinbase = sealers[msg.sender].coinbase;\r\n\r\n        sealers[msg.sender].coinbase = 0x0;\r\n        sealers[msg.sender].status = SealerStatus.PENALIZED;\r\n        sealers[msg.sender].leavedBlocknumber = block.number;\r\n        delete getSealer[_coinbase];\r\n        removeCoinbase(_coinbase);\r\n        emit Banned(_address);\r\n    }\r\n\r\n    function sealerUnlock(address _address) external onlyVoteContract {\r\n        sealers[_address].status = SealerStatus.PENDING_WITHDRAW;\r\n        emit Unbanned(_address);\r\n    }\r\n\r\n    ////////////////////////////////\r\n\r\n    function addCoinbase(address _coinbase) internal {\r\n        isCoinbase[_coinbase] = true;\r\n        coinbases.push(_coinbase);\r\n    }\r\n\r\n    function removeCoinbase(address _coinbase) internal {\r\n        isCoinbase[_coinbase] = false;\r\n        for (uint i = 0; i < coinbases.length; i++) {\r\n            if (_coinbase == coinbases[i]) {\r\n                coinbases[i] = coinbases[coinbases.length - 1];\r\n                coinbases.length--;\r\n                return;\r\n            }\r\n        }\r\n    }\r\n\r\n    /**\r\n    * Transfer the NTF from token holder to registration contract. \r\n    * Sealer might have to approve contract to transfer an amount of NTF before calling this function.\r\n    * @param tokens NTF Tokens to deposit\r\n    */\r\n    function deposit(uint256 tokens) public returns (bool) {\r\n        NTFToken(ntfAddress).transferFrom(msg.sender, address(this), tokens);\r\n        sealers[msg.sender].balance = (sealers[msg.sender].balance).add(tokens);\r\n        emit Deposited(msg.sender, tokens);\r\n        return true;\r\n    }\r\n        \r\n    /**\r\n    * To allow deposited NTF participate joining in as sealer. \r\n    * Participate already must deposit enough NTF via Deposit function. \r\n    * It takes coinbase as parameter.\r\n    * @param _coinbase Destination address\r\n    */\r\n    function join(address _coinbase) public notBanned joinable validCoinbase(_coinbase) returns (bool) {\r\n        sealers[msg.sender].coinbase = _coinbase;\r\n        sealers[msg.sender].status = SealerStatus.ACTIVE;\r\n        getSealer[_coinbase] = msg.sender;\r\n        addCoinbase(_coinbase);\r\n        emit Joined(msg.sender, _coinbase);\r\n        return true;\r\n    }\r\n\r\n    /**\r\n    * Request to exit out of activation sealer set\r\n    */\r\n    function leave() public notBanned leaveable returns (bool) {\r\n        address _coinbase = sealers[msg.sender].coinbase;\r\n\r\n        sealers[msg.sender].coinbase = 0x0;\r\n        sealers[msg.sender].status = SealerStatus.PENDING_WITHDRAW;\r\n        sealers[msg.sender].leavedBlocknumber = block.number;\r\n        delete getSealer[_coinbase];\r\n        removeCoinbase(_coinbase);\r\n        emit Leaved(msg.sender, _coinbase);\r\n        return true;\r\n    }\r\n\r\n    /**\r\n    * To withdraw sealers NTF balance when they already exited and after withdrawal period.\r\n    */\r\n    function withdraw() public notBanned withdrawable returns (bool) {\r\n        uint256 tokens = sealers[msg.sender].balance;\r\n        //NTFToken(ntfAddress).transfer(msg.sender, tokens);\r\n        sealers[msg.sender].status = SealerStatus.WITHDRAWN;\r\n        emit Withdrawn(msg.sender, tokens);\r\n        return true;\r\n    }\r\n\r\n}",
  "sourcePath": "C:\\Users\\bestb\\Desktop\\Dapps\\nexty\\nexty-governance\\contracts\\governance\\NextyManager.sol",
  "compiler": {
    "name": "solc",
    "version": "0.4.24+commit.e67f0147.Emscripten.clang"
  },
  "schemaVersion": "2.0.1",
  "updatedAt": "2018-10-16T04:42:41.235Z"
}