{
  "contractName": "Voting",
  "abi": [
    {
      "constant": true,
      "inputs": [
        {
          "name": "",
          "type": "address"
        },
        {
          "name": "",
          "type": "uint256"
        }
      ],
      "name": "joinedByAddress",
      "outputs": [
        {
          "name": "",
          "type": "bool"
        }
      ],
      "payable": false,
      "stateMutability": "view",
      "type": "function"
    },
    {
      "constant": true,
      "inputs": [],
      "name": "ONEDAY",
      "outputs": [
        {
          "name": "",
          "type": "uint256"
        }
      ],
      "payable": false,
      "stateMutability": "view",
      "type": "function"
    },
    {
      "constant": true,
      "inputs": [
        {
          "name": "",
          "type": "address"
        }
      ],
      "name": "isTarget",
      "outputs": [
        {
          "name": "",
          "type": "bool"
        }
      ],
      "payable": false,
      "stateMutability": "view",
      "type": "function"
    },
    {
      "constant": true,
      "inputs": [
        {
          "name": "",
          "type": "uint256"
        }
      ],
      "name": "polls",
      "outputs": [
        {
          "name": "target",
          "type": "address"
        },
        {
          "name": "ban",
          "type": "bool"
        },
        {
          "name": "startTime",
          "type": "uint256"
        },
        {
          "name": "endTime",
          "type": "uint256"
        },
        {
          "name": "result",
          "type": "bool"
        },
        {
          "name": "ended",
          "type": "bool"
        },
        {
          "name": "yesCounter",
          "type": "uint256"
        },
        {
          "name": "noCounter",
          "type": "uint256"
        }
      ],
      "payable": false,
      "stateMutability": "view",
      "type": "function"
    },
    {
      "constant": true,
      "inputs": [
        {
          "name": "",
          "type": "address"
        },
        {
          "name": "",
          "type": "uint256"
        }
      ],
      "name": "votesByAddress",
      "outputs": [
        {
          "name": "",
          "type": "bool"
        }
      ],
      "payable": false,
      "stateMutability": "view",
      "type": "function"
    },
    {
      "constant": true,
      "inputs": [],
      "name": "blacklistContract",
      "outputs": [
        {
          "name": "",
          "type": "address"
        }
      ],
      "payable": false,
      "stateMutability": "view",
      "type": "function"
    },
    {
      "inputs": [
        {
          "name": "_blacklistAddress",
          "type": "address"
        }
      ],
      "payable": false,
      "stateMutability": "nonpayable",
      "type": "constructor"
    },
    {
      "anonymous": false,
      "inputs": [
        {
          "indexed": false,
          "name": "_from",
          "type": "address"
        },
        {
          "indexed": false,
          "name": "_target",
          "type": "address"
        }
      ],
      "name": "PollCreatedSuccess",
      "type": "event"
    },
    {
      "anonymous": false,
      "inputs": [
        {
          "indexed": false,
          "name": "_from",
          "type": "address"
        },
        {
          "indexed": false,
          "name": "_id",
          "type": "uint256"
        }
      ],
      "name": "VoteSuccess",
      "type": "event"
    },
    {
      "constant": false,
      "inputs": [
        {
          "name": "_target",
          "type": "address"
        },
        {
          "name": "_ban",
          "type": "bool"
        },
        {
          "name": "_startTime",
          "type": "uint256"
        },
        {
          "name": "_endTime",
          "type": "uint256"
        }
      ],
      "name": "pollCreate",
      "outputs": [],
      "payable": false,
      "stateMutability": "nonpayable",
      "type": "function"
    },
    {
      "constant": false,
      "inputs": [
        {
          "name": "_target",
          "type": "address"
        },
        {
          "name": "_ban",
          "type": "bool"
        },
        {
          "name": "_duration",
          "type": "uint256"
        }
      ],
      "name": "pollCreateByDuration",
      "outputs": [],
      "payable": false,
      "stateMutability": "nonpayable",
      "type": "function"
    },
    {
      "constant": false,
      "inputs": [
        {
          "name": "id",
          "type": "uint256"
        },
        {
          "name": "agree",
          "type": "bool"
        }
      ],
      "name": "vote",
      "outputs": [],
      "payable": false,
      "stateMutability": "nonpayable",
      "type": "function"
    },
    {
      "constant": false,
      "inputs": [
        {
          "name": "id",
          "type": "uint256"
        }
      ],
      "name": "tryToFinalize",
      "outputs": [
        {
          "name": "",
          "type": "bool"
        }
      ],
      "payable": false,
      "stateMutability": "nonpayable",
      "type": "function"
    },
    {
      "constant": true,
      "inputs": [
        {
          "name": "_address",
          "type": "address"
        }
      ],
      "name": "isTargetByAddress",
      "outputs": [
        {
          "name": "",
          "type": "bool"
        }
      ],
      "payable": false,
      "stateMutability": "view",
      "type": "function"
    },
    {
      "constant": true,
      "inputs": [
        {
          "name": "id",
          "type": "uint256"
        }
      ],
      "name": "getCurrentCounter",
      "outputs": [
        {
          "name": "",
          "type": "uint256"
        },
        {
          "name": "",
          "type": "uint256"
        }
      ],
      "payable": false,
      "stateMutability": "view",
      "type": "function"
    },
    {
      "constant": true,
      "inputs": [],
      "name": "getPollsLength",
      "outputs": [
        {
          "name": "",
          "type": "uint256"
        }
      ],
      "payable": false,
      "stateMutability": "view",
      "type": "function"
    },
    {
      "constant": true,
      "inputs": [
        {
          "name": "id",
          "type": "uint256"
        }
      ],
      "name": "getPollById",
      "outputs": [
        {
          "name": "",
          "type": "address"
        },
        {
          "name": "",
          "type": "bool"
        },
        {
          "name": "",
          "type": "uint256"
        },
        {
          "name": "",
          "type": "uint256"
        },
        {
          "name": "",
          "type": "bool"
        },
        {
          "name": "",
          "type": "bool"
        },
        {
          "name": "",
          "type": "uint256"
        },
        {
          "name": "",
          "type": "uint256"
        }
      ],
      "payable": false,
      "stateMutability": "view",
      "type": "function"
    },
    {
      "constant": true,
      "inputs": [
        {
          "name": "_address",
          "type": "address"
        },
        {
          "name": "_id",
          "type": "uint256"
        }
      ],
      "name": "getJoinedByAddress",
      "outputs": [
        {
          "name": "",
          "type": "bool"
        }
      ],
      "payable": false,
      "stateMutability": "view",
      "type": "function"
    },
    {
      "constant": true,
      "inputs": [
        {
          "name": "_address",
          "type": "address"
        },
        {
          "name": "_id",
          "type": "uint256"
        }
      ],
      "name": "getVotesByAddress",
      "outputs": [
        {
          "name": "",
          "type": "bool"
        }
      ],
      "payable": false,
      "stateMutability": "view",
      "type": "function"
    },
    {
      "constant": false,
      "inputs": [
        {
          "name": "_address",
          "type": "address"
        }
      ],
      "name": "testAddWithCall",
      "outputs": [],
      "payable": false,
      "stateMutability": "nonpayable",
      "type": "function"
    },
    {
      "constant": false,
      "inputs": [
        {
          "name": "_address",
          "type": "address"
        }
      ],
      "name": "testRemoveWithCall",
      "outputs": [],
      "payable": false,
      "stateMutability": "nonpayable",
      "type": "function"
    }
  ],
  "bytecode": "0x608060405234801561001057600080fd5b506040516020806127aa83398101806040528101908080519060200190929190505050806000806101000a81548173ffffffffffffffffffffffffffffffffffffffff021916908373ffffffffffffffffffffffffffffffffffffffff16021790555050612727806100836000396000f3006080604052600436106100fc576000357c0100000000000000000000000000000000000000000000000000000000900463ffffffff1680631403bba91461010157806328b1f2471461016457806331207280146101c9578063718dceb91461020c57806384a19234146102375780638ff7ba991461027a578063a79a7b63146102df578063aa64227414610344578063ac2f00741461039f578063c7f07b6c14610449578063c9d27afe146104a2578063d23339bf146104db578063d4bc5e9114610536578063d4f0ca1f146105e0578063db7c01e21461060b578063e56ef6fa14610670578063f3e1a4df146106b8578063fdb7f3e01461070f575b600080fd5b34801561010d57600080fd5b50610162600480360381019080803573ffffffffffffffffffffffffffffffffffffffff1690602001909291908035151590602001909291908035906020019092919080359060200190929190505050610754565b005b34801561017057600080fd5b506101af600480360381019080803573ffffffffffffffffffffffffffffffffffffffff16906020019092919080359060200190929190505050610bfe565b604051808215151515815260200191505060405180910390f35b3480156101d557600080fd5b5061020a600480360381019080803573ffffffffffffffffffffffffffffffffffffffff169060200190929190505050610c2d565b005b34801561021857600080fd5b50610221610d28565b6040518082815260200191505060405180910390f35b34801561024357600080fd5b50610278600480360381019080803573ffffffffffffffffffffffffffffffffffffffff169060200190929190505050610d2d565b005b34801561028657600080fd5b506102c5600480360381019080803573ffffffffffffffffffffffffffffffffffffffff16906020019092919080359060200190929190505050610e28565b604051808215151515815260200191505060405180910390f35b3480156102eb57600080fd5b5061032a600480360381019080803573ffffffffffffffffffffffffffffffffffffffff16906020019092919080359060200190929190505050610e90565b604051808215151515815260200191505060405180910390f35b34801561035057600080fd5b50610385600480360381019080803573ffffffffffffffffffffffffffffffffffffffff169060200190929190505050610ef8565b604051808215151515815260200191505060405180910390f35b3480156103ab57600080fd5b506103ca60048036038101908080359060200190929190505050610f18565b604051808973ffffffffffffffffffffffffffffffffffffffff1673ffffffffffffffffffffffffffffffffffffffff1681526020018815151515815260200187815260200186815260200185151515158152602001841515151581526020018381526020018281526020019850505050505050505060405180910390f35b34801561045557600080fd5b506104a0600480360381019080803573ffffffffffffffffffffffffffffffffffffffff16906020019092919080351515906020019092919080359060200190929190505050610fb6565b005b3480156104ae57600080fd5b506104d96004803603810190808035906020019092919080351515906020019092919050505061121a565b005b3480156104e757600080fd5b5061051c600480360381019080803573ffffffffffffffffffffffffffffffffffffffff1690602001909291905050506116dd565b604051808215151515815260200191505060405180910390f35b34801561054257600080fd5b5061056160048036038101908080359060200190929190505050611733565b604051808973ffffffffffffffffffffffffffffffffffffffff1673ffffffffffffffffffffffffffffffffffffffff1681526020018815151515815260200187815260200186815260200185151515158152602001841515151581526020018381526020018281526020019850505050505050505060405180910390f35b3480156105ec57600080fd5b506105f5611974565b6040518082815260200191505060405180910390f35b34801561061757600080fd5b50610656600480360381019080803573ffffffffffffffffffffffffffffffffffffffff16906020019092919080359060200190929190505050611981565b604051808215151515815260200191505060405180910390f35b34801561067c57600080fd5b5061069b600480360381019080803590602001909291905050506119b0565b604051808381526020018281526020019250505060405180910390f35b3480156106c457600080fd5b506106cd611ce2565b604051808273ffffffffffffffffffffffffffffffffffffffff1673ffffffffffffffffffffffffffffffffffffffff16815260200191505060405180910390f35b34801561071b57600080fd5b5061073a60048036038101908080359060200190929190505050611d07565b604051808215151515815260200191505060405180910390f35b61075c61257f565b600160008673ffffffffffffffffffffffffffffffffffffffff1673ffffffffffffffffffffffffffffffffffffffff16815260200190815260200160002060009054906101000a900460ff1615151561081e576040517f08c379a00000000000000000000000000000000000000000000000000000000081526004018080602001828103825260138152602001807f697320746172676574206f66206120706f6c6c0000000000000000000000000081525060200191505060405180910390fd5b8315156000809054906101000a900473ffffffffffffffffffffffffffffffffffffffff1673ffffffffffffffffffffffffffffffffffffffff166286786e876040518263ffffffff167c0100000000000000000000000000000000000000000000000000000000028152600401808273ffffffffffffffffffffffffffffffffffffffff1673ffffffffffffffffffffffffffffffffffffffff168152602001915050602060405180830381600087803b1580156108dc57600080fd5b505af11580156108f0573d6000803e3d6000fd5b505050506040513d602081101561090657600080fd5b810190808051906020019092919050505015151415151561098f576040517f08c379a000000000000000000000000000000000000000000000000000000000815260040180806020018281038252601a8152602001807f616c72656164792062616e6e6564206f7220756e62616e6e656400000000000081525060200191505060405180910390fd5b60018060008773ffffffffffffffffffffffffffffffffffffffff1673ffffffffffffffffffffffffffffffffffffffff16815260200190815260200160002060006101000a81548160ff02191690831515021790555084816000019073ffffffffffffffffffffffffffffffffffffffff16908173ffffffffffffffffffffffffffffffffffffffff16815250508381602001901515908115158152505082816040018181525050818160600181815250506004819080600181540180825580915050906001820390600052602060002090600702016000909192909190915060008201518160000160006101000a81548173ffffffffffffffffffffffffffffffffffffffff021916908373ffffffffffffffffffffffffffffffffffffffff16021790555060208201518160000160146101000a81548160ff02191690831515021790555060408201518160010155606082015181600201556080820151816003019080519060200190610b079291906125e8565b5060a08201518160040160006101000a81548160ff02191690831515021790555060c08201518160040160016101000a81548160ff02191690831515021790555060e0820151816005015561010082015181600601555050507fc6fcad5acef6cf9f9722432ecb0ff3763242a7b82f8627a5e4df9835f4fefe3c3386604051808373ffffffffffffffffffffffffffffffffffffffff1673ffffffffffffffffffffffffffffffffffffffff1681526020018273ffffffffffffffffffffffffffffffffffffffff1673ffffffffffffffffffffffffffffffffffffffff1681526020019250505060405180910390a15050505050565b60036020528160005260406000206020528060005260406000206000915091509054906101000a900460ff1681565b6000809054906101000a900473ffffffffffffffffffffffffffffffffffffffff1673ffffffffffffffffffffffffffffffffffffffff166335e82f3a826040518263ffffffff167c0100000000000000000000000000000000000000000000000000000000028152600401808273ffffffffffffffffffffffffffffffffffffffff1673ffffffffffffffffffffffffffffffffffffffff168152602001915050602060405180830381600087803b158015610ce957600080fd5b505af1158015610cfd573d6000803e3d6000fd5b505050506040513d6020811015610d1357600080fd5b81019080805190602001909291905050505050565b600281565b6000809054906101000a900473ffffffffffffffffffffffffffffffffffffffff1673ffffffffffffffffffffffffffffffffffffffff1663f2c816ae826040518263ffffffff167c0100000000000000000000000000000000000000000000000000000000028152600401808273ffffffffffffffffffffffffffffffffffffffff1673ffffffffffffffffffffffffffffffffffffffff168152602001915050602060405180830381600087803b158015610de957600080fd5b505af1158015610dfd573d6000803e3d6000fd5b505050506040513d6020811015610e1357600080fd5b81019080805190602001909291905050505050565b6000600260008473ffffffffffffffffffffffffffffffffffffffff1673ffffffffffffffffffffffffffffffffffffffff168152602001908152602001600020600083815260200190815260200160002060009054906101000a900460ff16905092915050565b6000600360008473ffffffffffffffffffffffffffffffffffffffff1673ffffffffffffffffffffffffffffffffffffffff168152602001908152602001600020600083815260200190815260200160002060009054906101000a900460ff16905092915050565b60016020528060005260406000206000915054906101000a900460ff1681565b600481815481101515610f2757fe5b90600052602060002090600702016000915090508060000160009054906101000a900473ffffffffffffffffffffffffffffffffffffffff16908060000160149054906101000a900460ff16908060010154908060020154908060040160009054906101000a900460ff16908060040160019054906101000a900460ff16908060050154908060060154905088565b600080600160008673ffffffffffffffffffffffffffffffffffffffff1673ffffffffffffffffffffffffffffffffffffffff16815260200190815260200160002060009054906101000a900460ff1615151561107b576040517f08c379a00000000000000000000000000000000000000000000000000000000081526004018080602001828103825260138152602001807f697320746172676574206f66206120706f6c6c0000000000000000000000000081525060200191505060405180910390fd5b8315156000809054906101000a900473ffffffffffffffffffffffffffffffffffffffff1673ffffffffffffffffffffffffffffffffffffffff166286786e876040518263ffffffff167c0100000000000000000000000000000000000000000000000000000000028152600401808273ffffffffffffffffffffffffffffffffffffffff1673ffffffffffffffffffffffffffffffffffffffff168152602001915050602060405180830381600087803b15801561113957600080fd5b505af115801561114d573d6000803e3d6000fd5b505050506040513d602081101561116357600080fd5b81019080805190602001909291905050501515141515156111ec576040517f08c379a000000000000000000000000000000000000000000000000000000000815260040180806020018281038252601a8152602001807f616c72656164792062616e6e6564206f7220756e62616e6e656400000000000081525060200191505060405180910390fd5b4291506112036002846120d490919063ffffffff16565b4201905061121385858484610754565b5050505050565b61122261257f565b6004805490508310151561129e576040517f08c379a000000000000000000000000000000000000000000000000000000000815260040180806020018281038252600c8152602001807f6964206e6f74206578697374000000000000000000000000000000000000000081525060200191505060405180910390fd5b6004838154811015156112ad57fe5b906000526020600020906007020161012060405190810160405290816000820160009054906101000a900473ffffffffffffffffffffffffffffffffffffffff1673ffffffffffffffffffffffffffffffffffffffff1673ffffffffffffffffffffffffffffffffffffffff1681526020016000820160149054906101000a900460ff161515151581526020016001820154815260200160028201548152602001600382018054806020026020016040519081016040528092919081815260200182805480156113d257602002820191906000526020600020905b8160009054906101000a900473ffffffffffffffffffffffffffffffffffffffff1673ffffffffffffffffffffffffffffffffffffffff1681526020019060010190808311611388575b505050505081526020016004820160009054906101000a900460ff161515151581526020016004820160019054906101000a900460ff161515151581526020016005820154815260200160068201548152505090508060400151421015801561143f575080606001514211155b15156114b3576040517f08c379a00000000000000000000000000000000000000000000000000000000081526004018080602001828103825260178152602001807f206e6f7420647572696e6720766f74696e672074696d6500000000000000000081525060200191505060405180910390fd5b600360003373ffffffffffffffffffffffffffffffffffffffff1673ffffffffffffffffffffffffffffffffffffffff168152602001908152602001600020600084815260200190815260200160002060009054906101000a900460ff161515611605576001600360003373ffffffffffffffffffffffffffffffffffffffff1673ffffffffffffffffffffffffffffffffffffffff168152602001908152602001600020600085815260200190815260200160002060006101000a81548160ff02191690831515021790555060048381548110151561158f57fe5b90600052602060002090600702016003013390806001815401808255809150509060018203906000526020600020016000909192909190916101000a81548173ffffffffffffffffffffffffffffffffffffffff021916908373ffffffffffffffffffffffffffffffffffffffff160217905550505b81600260003373ffffffffffffffffffffffffffffffffffffffff1673ffffffffffffffffffffffffffffffffffffffff168152602001908152602001600020600085815260200190815260200160002060006101000a81548160ff0219169083151502179055507f3a232d0b41363ece538fec6c001a49e4d237d8806c40d2899dc7590e1b2dfd1d3384604051808373ffffffffffffffffffffffffffffffffffffffff1673ffffffffffffffffffffffffffffffffffffffff1681526020018281526020019250505060405180910390a1505050565b6000600160008373ffffffffffffffffffffffffffffffffffffffff1673ffffffffffffffffffffffffffffffffffffffff16815260200190815260200160002060009054906101000a900460ff169050919050565b60008060008060008060008061174761257f565b60008060048c81548110151561175957fe5b906000526020600020906007020161012060405190810160405290816000820160009054906101000a900473ffffffffffffffffffffffffffffffffffffffff1673ffffffffffffffffffffffffffffffffffffffff1673ffffffffffffffffffffffffffffffffffffffff1681526020016000820160149054906101000a900460ff1615151515815260200160018201548152602001600282015481526020016003820180548060200260200160405190810160405280929190818152602001828054801561187e57602002820191906000526020600020905b8160009054906101000a900473ffffffffffffffffffffffffffffffffffffffff1673ffffffffffffffffffffffffffffffffffffffff1681526020019060010190808311611834575b505050505081526020016004820160009054906101000a900460ff161515151581526020016004820160019054906101000a900460ff1615151515815260200160058201548152602001600682015481525050925060048c8154811015156118e257fe5b906000526020600020906007020160050154915060048c81548110151561190557fe5b90600052602060002090600702016006015490508260c0015115156119365761192d8c6119b0565b80925081935050505b82600001518360200151846040015185606001518660a001518760c0015187879a509a509a509a509a509a509a509a50505050919395975091939597565b6000600480549050905090565b60026020528160005260406000206020528060005260406000206000915091509054906101000a900460ff1681565b6000806119bb61257f565b600080600080600060048054905089101515611a3f576040517f08c379a000000000000000000000000000000000000000000000000000000000815260040180806020018281038252600c8152602001807f6964206e6f74206578697374000000000000000000000000000000000000000081525060200191505060405180910390fd5b600489815481101515611a4e57fe5b906000526020600020906007020161012060405190810160405290816000820160009054906101000a900473ffffffffffffffffffffffffffffffffffffffff1673ffffffffffffffffffffffffffffffffffffffff1673ffffffffffffffffffffffffffffffffffffffff1681526020016000820160149054906101000a900460ff16151515158152602001600182015481526020016002820154815260200160038201805480602002602001604051908101604052809291908181526020018280548015611b7357602002820191906000526020600020905b8160009054906101000a900473ffffffffffffffffffffffffffffffffffffffff1673ffffffffffffffffffffffffffffffffffffffff1681526020019060010190808311611b29575b505050505081526020016004820160009054906101000a900460ff161515151581526020016004820160019054906101000a900460ff161515151581526020016005820154815260200160068201548152505095506000945060009350600092505b856080015151831015611cd157856080015183815181101515611bf457fe5b906020019060200201519150600260008373ffffffffffffffffffffffffffffffffffffffff1673ffffffffffffffffffffffffffffffffffffffff16815260200190815260200160002060008a815260200190815260200160002060009054906101000a900460ff1690508015611c9757611c908273ffffffffffffffffffffffffffffffffffffffff16318661210790919063ffffffff16565b9450611cc4565b611cc18273ffffffffffffffffffffffffffffffffffffffff16318561210790919063ffffffff16565b93505b8280600101935050611bd5565b848497509750505050505050915091565b6000809054906101000a900473ffffffffffffffffffffffffffffffffffffffff1681565b6000611d1161257f565b60048054905083101515611d8d576040517f08c379a000000000000000000000000000000000000000000000000000000000815260040180806020018281038252600c8152602001807f6964206e6f74206578697374000000000000000000000000000000000000000081525060200191505060405180910390fd5b600483815481101515611d9c57fe5b906000526020600020906007020161012060405190810160405290816000820160009054906101000a900473ffffffffffffffffffffffffffffffffffffffff1673ffffffffffffffffffffffffffffffffffffffff1673ffffffffffffffffffffffffffffffffffffffff1681526020016000820160149054906101000a900460ff16151515158152602001600182015481526020016002820154815260200160038201805480602002602001604051908101604052809291908181526020018280548015611ec157602002820191906000526020600020905b8160009054906101000a900473ffffffffffffffffffffffffffffffffffffffff1673ffffffffffffffffffffffffffffffffffffffff1681526020019060010190808311611e77575b505050505081526020016004820160009054906101000a900460ff161515151581526020016004820160019054906101000a900460ff161515151581526020016005820154815260200160068201548152505090508060600151421080611f2957508060c001515b15611f3757600091506120ce565b611f4083612125565b600486815481101515611f4f57fe5b90600052602060002090600702016004016000600488815481101515611f7157fe5b9060005260206000209060070201600501600060048a815481101515611f9357fe5b90600052602060002090600702016006016000869190505585919050558491906101000a81548160ff021916908315150217905550505050600483815481101515611fda57fe5b90600052602060002090600702016003016000611ff79190612672565b60048381548110151561200657fe5b906000526020600020906007020160040160009054906101000a900460ff16156120345761203383612159565b5b600160048481548110151561204557fe5b906000526020600020906007020160040160016101000a81548160ff021916908315150217905550600060016000836000015173ffffffffffffffffffffffffffffffffffffffff1673ffffffffffffffffffffffffffffffffffffffff16815260200190815260200160002060006101000a81548160ff021916908315150217905550600191505b50919050565b600080828402905060008414806120f557508284828115156120f257fe5b04145b15156120fd57fe5b8091505092915050565b600080828401905083811015151561211b57fe5b8091505092915050565b6000806000806000612136866119b0565b80925081935050506121488282612572565b828294509450945050509193909250565b61216161257f565b600480549050821015156121dd576040517f08c379a000000000000000000000000000000000000000000000000000000000815260040180806020018281038252600c8152602001807f6964206e6f74206578697374000000000000000000000000000000000000000081525060200191505060405180910390fd5b6004828154811015156121ec57fe5b906000526020600020906007020161012060405190810160405290816000820160009054906101000a900473ffffffffffffffffffffffffffffffffffffffff1673ffffffffffffffffffffffffffffffffffffffff1673ffffffffffffffffffffffffffffffffffffffff1681526020016000820160149054906101000a900460ff1615151515815260200160018201548152602001600282015481526020016003820180548060200260200160405190810160405280929190818152602001828054801561231157602002820191906000526020600020905b8160009054906101000a900473ffffffffffffffffffffffffffffffffffffffff1673ffffffffffffffffffffffffffffffffffffffff16815260200190600101908083116122c7575b505050505081526020016004820160009054906101000a900460ff161515151581526020016004820160019054906101000a900460ff16151515158152602001600582015481526020016006820154815250509050806020015115612471576000809054906101000a900473ffffffffffffffffffffffffffffffffffffffff1673ffffffffffffffffffffffffffffffffffffffff1663f2c816ae82600001516040518263ffffffff167c0100000000000000000000000000000000000000000000000000000000028152600401808273ffffffffffffffffffffffffffffffffffffffff1673ffffffffffffffffffffffffffffffffffffffff168152602001915050602060405180830381600087803b15801561243057600080fd5b505af1158015612444573d6000803e3d6000fd5b505050506040513d602081101561245a57600080fd5b81019080805190602001909291905050505061256e565b6000809054906101000a900473ffffffffffffffffffffffffffffffffffffffff1673ffffffffffffffffffffffffffffffffffffffff166335e82f3a82600001516040518263ffffffff167c0100000000000000000000000000000000000000000000000000000000028152600401808273ffffffffffffffffffffffffffffffffffffffff1673ffffffffffffffffffffffffffffffffffffffff168152602001915050602060405180830381600087803b15801561253157600080fd5b505af1158015612545573d6000803e3d6000fd5b505050506040513d602081101561255b57600080fd5b8101908080519060200190929190505050505b5050565b6000818311905092915050565b61012060405190810160405280600073ffffffffffffffffffffffffffffffffffffffff16815260200160001515815260200160008152602001600081526020016060815260200160001515815260200160001515815260200160008152602001600081525090565b828054828255906000526020600020908101928215612661579160200282015b828111156126605782518260006101000a81548173ffffffffffffffffffffffffffffffffffffffff021916908373ffffffffffffffffffffffffffffffffffffffff16021790555091602001919060010190612608565b5b50905061266e9190612693565b5090565b508054600082559060005260206000209081019061269091906126d6565b50565b6126d391905b808211156126cf57600081816101000a81549073ffffffffffffffffffffffffffffffffffffffff021916905550600101612699565b5090565b90565b6126f891905b808211156126f45760008160009055506001016126dc565b5090565b905600a165627a7a723058203dcc286fe562804c0029eb91eef11364a239125f5478e398881fb74abc1d84e20029",
  "source": "pragma solidity ^0.4.24;\r\n\r\nimport \"./SafeMath.sol\";\r\nimport \"./Blacklist.sol\";\r\n\r\ncontract Voting {\r\n    using SafeMath for uint256;\r\n    struct Poll {\r\n        address target;\r\n        bool ban; //true = ban, false = unban\r\n        uint256 startTime;\r\n        uint256 endTime;\r\n        address[] joinedAdresses;\r\n        bool result;\r\n        bool ended;\r\n        uint256 yesCounter;\r\n        uint256 noCounter;\r\n    }\r\n\r\n    //uint256 constant public ONEDAY = 24 * 60 * 60;\r\n    uint256 constant public ONEDAY = 2;\r\n\r\n    Blacklist public blacklistContract;\r\n    \r\n    mapping(address => bool) public isTarget;\r\n    mapping(address => mapping (uint256 => bool)) public votesByAddress;\r\n    mapping(address => mapping (uint256 => bool)) public joinedByAddress;\r\n    //mapping(address => bool) banned;\r\n    \r\n    Poll[] public polls;\r\n    \r\n    event PollCreatedSuccess(address _from, address _target);\r\n    event VoteSuccess(address _from, uint256 _id);\r\n    \r\n    modifier onlyGoodMan() {\r\n        require(!blacklistContract.inBlacklist(msg.sender) && !isTarget[msg.sender], \"banned or is target of a poll\");\r\n        _;\r\n    }\r\n    \r\n//////////////////////////////////////////////////////////////////\r\n   \r\n    constructor (address _blacklistAddress) public{\r\n        blacklistContract = Blacklist(_blacklistAddress);\r\n    }\r\n    \r\n    function pollCreate(address _target, bool _ban, uint256 _startTime, uint256 _endTime) public {\r\n        require(!isTarget[_target], \"is target of a poll\");\r\n        require(blacklistContract.inBlacklist(_target) != _ban, \"already banned or unbanned\");\r\n        isTarget[_target] = true;\r\n        Poll memory _poll;\r\n        _poll.target = _target;\r\n        _poll.ban = _ban;\r\n        _poll.startTime = _startTime;\r\n        _poll.endTime = _endTime;\r\n        polls.push(_poll);\r\n        emit PollCreatedSuccess(msg.sender, _target);\r\n    }\r\n\r\n    function pollCreateByDuration(address _target, bool _ban, uint256 _duration) public {\r\n        require(!isTarget[_target], \"is target of a poll\");\r\n        require(blacklistContract.inBlacklist(_target) != _ban, \"already banned or unbanned\");\r\n        uint256 startTime = now;\r\n        uint256 endTime = now + _duration.mul(ONEDAY);\r\n        pollCreate(_target, _ban, startTime, endTime);\r\n    }\r\n    \r\n    function vote(uint256 id, bool agree) public {\r\n        require(id < polls.length, \"id not exist\");\r\n        Poll memory poll = polls[id];\r\n        require(now >= poll.startTime && now <= poll.endTime, \" not during voting time\");\r\n        \r\n        if (!joinedByAddress[msg.sender][id]) {\r\n            joinedByAddress[msg.sender][id] = true;\r\n            polls[id].joinedAdresses.push(msg.sender);\r\n        }\r\n        \r\n        votesByAddress[msg.sender][id] = agree;\r\n        emit VoteSuccess(msg.sender, id);\r\n    }\r\n    \r\n    function isSubjectApproved(uint256 yesCounter, uint256 noCounter) internal pure returns(bool) {\r\n        return yesCounter > noCounter;\r\n    }\r\n\r\n    function getPollResult(uint256 id) private view returns(bool, uint256, uint256) {\r\n        uint256 yesCounter; \r\n        uint256 noCounter; \r\n        (yesCounter, noCounter) = getCurrentCounter(id);\r\n        return (isSubjectApproved(yesCounter, noCounter), yesCounter, noCounter);\r\n    }\r\n    \r\n    function pollEnforce(uint256 id) private {\r\n        require(id < polls.length, \"id not exist\");\r\n        Poll memory poll = polls[id];\r\n        //vote to ban\r\n        if (poll.ban)\r\n        blacklistContract.addAddressToBlacklist(poll.target); else \r\n        //vote to unban\r\n        blacklistContract.removeAddressFromBlacklist(poll.target);\r\n    }\r\n    \r\n    function tryToFinalize(uint256 id) public returns(bool) {\r\n        require(id < polls.length, \"id not exist\");\r\n        Poll memory poll = polls[id];\r\n        if ((now < poll.endTime) || (poll.ended)) {\r\n            return false;\r\n        }\r\n        (polls[id].result, polls[id].yesCounter, polls[id].noCounter) = getPollResult(id);\r\n        delete polls[id].joinedAdresses;\r\n        if (polls[id].result) pollEnforce(id);\r\n        polls[id].ended = true;\r\n        isTarget[poll.target] = false;\r\n        return true;\r\n    }\r\n\r\n    function isTargetByAddress(address _address) public view returns(bool){\r\n        return isTarget[_address];\r\n    }\r\n\r\n    function getCurrentCounter(uint256 id) public view returns(uint256, uint256) {\r\n        require(id < polls.length, \"id not exist\");\r\n        Poll memory poll = polls[id];\r\n        uint256 yesCounter = 0;\r\n        uint256 noCounter = 0;\r\n        for (uint256 i = 0; i < poll.joinedAdresses.length; i++ ) {\r\n            address _address = poll.joinedAdresses[i];\r\n            bool voteValue = votesByAddress[_address][id];\r\n            if (voteValue) yesCounter = yesCounter.add(_address.balance); else \r\n            noCounter = noCounter.add(_address.balance);\r\n        }\r\n\r\n        return (yesCounter, noCounter);\r\n    }\r\n\r\n    function getPollsLength() public view returns(uint256) { \r\n        return polls.length;\r\n    }\r\n\r\n    function getPollById(uint256 id) public view returns(address, bool, uint256, uint256, bool, bool, uint256, uint256 ) {\r\n        Poll memory poll = polls[id];\r\n        uint256 yesCounter = polls[id].yesCounter;\r\n        uint256 noCounter = polls[id].noCounter;\r\n        if (!poll.ended) (yesCounter, noCounter) = getCurrentCounter(id);\r\n        return (poll.target, poll.ban, poll.startTime, poll.endTime, poll.result, poll.ended, yesCounter, noCounter);\r\n    }\r\n\r\n    function getJoinedByAddress(address _address, uint256 _id) public view returns(bool) {\r\n        return joinedByAddress[_address][_id];\r\n    }\r\n\r\n    function getVotesByAddress(address _address, uint256 _id) public view  returns(bool) {\r\n        return votesByAddress[_address][_id];\r\n    }\r\n    \r\n    function testAddWithCall(address _address) public {\r\n        blacklistContract.addAddressToBlacklist(_address);\r\n    }\r\n    \r\n    function testRemoveWithCall(address _address) public {\r\n        blacklistContract.removeAddressFromBlacklist(_address);\r\n    }\r\n}",
  "sourcePath": "C:\\Users\\bestb\\Desktop\\Dapps\\nexty\\nexty-governance\\contracts\\governance\\Voting.sol",
  "compiler": {
    "name": "solc",
    "version": "0.4.24+commit.e67f0147.Emscripten.clang"
  },
  "schemaVersion": "2.0.1",
  "updatedAt": "2018-10-17T09:53:46.235Z"
}